{
  "_format": "hh-sol-artifact-1",
  "contractName": "LaunchCampaign",
  "sourceName": "contracts/LaunchCampaign.sol",
  "abi": [
    {
      "inputs": [],
      "stateMutability": "nonpayable",
      "type": "constructor"
    },
    {
      "inputs": [
        {
          "internalType": "address",
          "name": "owner",
          "type": "address"
        }
      ],
      "name": "OwnableInvalidOwner",
      "type": "error"
    },
    {
      "inputs": [
        {
          "internalType": "address",
          "name": "account",
          "type": "address"
        }
      ],
      "name": "OwnableUnauthorizedAccount",
      "type": "error"
    },
    {
      "inputs": [],
      "name": "ReentrancyGuardReentrantCall",
      "type": "error"
    },
    {
      "inputs": [
        {
          "internalType": "address",
          "name": "token",
          "type": "address"
        }
      ],
      "name": "SafeERC20FailedOperation",
      "type": "error"
    },
    {
      "anonymous": false,
      "inputs": [
        {
          "indexed": true,
          "internalType": "address",
          "name": "caller",
          "type": "address"
        },
        {
          "indexed": false,
          "internalType": "uint256",
          "name": "liquidityTokens",
          "type": "uint256"
        },
        {
          "indexed": false,
          "internalType": "uint256",
          "name": "liquidityBnb",
          "type": "uint256"
        },
        {
          "indexed": false,
          "internalType": "uint256",
          "name": "protocolFee",
          "type": "uint256"
        },
        {
          "indexed": false,
          "internalType": "uint256",
          "name": "creatorPayout",
          "type": "uint256"
        }
      ],
      "name": "CampaignFinalized",
      "type": "event"
    },
    {
      "anonymous": false,
      "inputs": [
        {
          "indexed": true,
          "internalType": "address",
          "name": "previousOwner",
          "type": "address"
        },
        {
          "indexed": true,
          "internalType": "address",
          "name": "newOwner",
          "type": "address"
        }
      ],
      "name": "OwnershipTransferred",
      "type": "event"
    },
    {
      "anonymous": false,
      "inputs": [
        {
          "indexed": true,
          "internalType": "address",
          "name": "buyer",
          "type": "address"
        },
        {
          "indexed": false,
          "internalType": "uint256",
          "name": "amountOut",
          "type": "uint256"
        },
        {
          "indexed": false,
          "internalType": "uint256",
          "name": "cost",
          "type": "uint256"
        }
      ],
      "name": "TokensPurchased",
      "type": "event"
    },
    {
      "anonymous": false,
      "inputs": [
        {
          "indexed": true,
          "internalType": "address",
          "name": "seller",
          "type": "address"
        },
        {
          "indexed": false,
          "internalType": "uint256",
          "name": "amountIn",
          "type": "uint256"
        },
        {
          "indexed": false,
          "internalType": "uint256",
          "name": "payout",
          "type": "uint256"
        }
      ],
      "name": "TokensSold",
      "type": "event"
    },
    {
      "inputs": [],
      "name": "basePrice",
      "outputs": [
        {
          "internalType": "uint256",
          "name": "",
          "type": "uint256"
        }
      ],
      "stateMutability": "view",
      "type": "function"
    },
    {
      "inputs": [
        {
          "internalType": "uint256",
          "name": "minTokensOut",
          "type": "uint256"
        }
      ],
      "name": "buyExactBnb",
      "outputs": [
        {
          "internalType": "uint256",
          "name": "tokensOut",
          "type": "uint256"
        },
        {
          "internalType": "uint256",
          "name": "totalSpent",
          "type": "uint256"
        }
      ],
      "stateMutability": "payable",
      "type": "function"
    },
    {
      "inputs": [
        {
          "internalType": "address",
          "name": "recipient",
          "type": "address"
        },
        {
          "internalType": "uint256",
          "name": "minTokensOut",
          "type": "uint256"
        }
      ],
      "name": "buyExactBnbFor",
      "outputs": [
        {
          "internalType": "uint256",
          "name": "tokensOut",
          "type": "uint256"
        },
        {
          "internalType": "uint256",
          "name": "totalSpent",
          "type": "uint256"
        }
      ],
      "stateMutability": "payable",
      "type": "function"
    },
    {
      "inputs": [
        {
          "internalType": "uint256",
          "name": "amountOut",
          "type": "uint256"
        },
        {
          "internalType": "uint256",
          "name": "maxCost",
          "type": "uint256"
        }
      ],
      "name": "buyExactTokens",
      "outputs": [
        {
          "internalType": "uint256",
          "name": "cost",
          "type": "uint256"
        }
      ],
      "stateMutability": "payable",
      "type": "function"
    },
    {
      "inputs": [
        {
          "internalType": "address",
          "name": "recipient",
          "type": "address"
        },
        {
          "internalType": "uint256",
          "name": "amountOut",
          "type": "uint256"
        },
        {
          "internalType": "uint256",
          "name": "maxCost",
          "type": "uint256"
        }
      ],
      "name": "buyExactTokensFor",
      "outputs": [
        {
          "internalType": "uint256",
          "name": "total",
          "type": "uint256"
        }
      ],
      "stateMutability": "payable",
      "type": "function"
    },
    {
      "inputs": [],
      "name": "buyersCount",
      "outputs": [
        {
          "internalType": "uint256",
          "name": "",
          "type": "uint256"
        }
      ],
      "stateMutability": "view",
      "type": "function"
    },
    {
      "inputs": [],
      "name": "creatorReserve",
      "outputs": [
        {
          "internalType": "uint256",
          "name": "",
          "type": "uint256"
        }
      ],
      "stateMutability": "view",
      "type": "function"
    },
    {
      "inputs": [],
      "name": "currentPrice",
      "outputs": [
        {
          "internalType": "uint256",
          "name": "",
          "type": "uint256"
        }
      ],
      "stateMutability": "view",
      "type": "function"
    },
    {
      "inputs": [],
      "name": "curveSupply",
      "outputs": [
        {
          "internalType": "uint256",
          "name": "",
          "type": "uint256"
        }
      ],
      "stateMutability": "view",
      "type": "function"
    },
    {
      "inputs": [],
      "name": "extraLink",
      "outputs": [
        {
          "internalType": "string",
          "name": "",
          "type": "string"
        }
      ],
      "stateMutability": "view",
      "type": "function"
    },
    {
      "inputs": [],
      "name": "factory",
      "outputs": [
        {
          "internalType": "address",
          "name": "",
          "type": "address"
        }
      ],
      "stateMutability": "view",
      "type": "function"
    },
    {
      "inputs": [],
      "name": "feeRecipient",
      "outputs": [
        {
          "internalType": "address",
          "name": "",
          "type": "address"
        }
      ],
      "stateMutability": "view",
      "type": "function"
    },
    {
      "inputs": [
        {
          "internalType": "uint256",
          "name": "minTokens",
          "type": "uint256"
        },
        {
          "internalType": "uint256",
          "name": "minBnb",
          "type": "uint256"
        }
      ],
      "name": "finalize",
      "outputs": [
        {
          "internalType": "uint256",
          "name": "usedTokens",
          "type": "uint256"
        },
        {
          "internalType": "uint256",
          "name": "usedBnb",
          "type": "uint256"
        }
      ],
      "stateMutability": "nonpayable",
      "type": "function"
    },
    {
      "inputs": [],
      "name": "finalizedAt",
      "outputs": [
        {
          "internalType": "uint256",
          "name": "",
          "type": "uint256"
        }
      ],
      "stateMutability": "view",
      "type": "function"
    },
    {
      "inputs": [],
      "name": "graduationTarget",
      "outputs": [
        {
          "internalType": "uint256",
          "name": "",
          "type": "uint256"
        }
      ],
      "stateMutability": "view",
      "type": "function"
    },
    {
      "inputs": [
        {
          "internalType": "address",
          "name": "",
          "type": "address"
        }
      ],
      "name": "hasBought",
      "outputs": [
        {
          "internalType": "bool",
          "name": "",
          "type": "bool"
        }
      ],
      "stateMutability": "view",
      "type": "function"
    },
    {
      "inputs": [
        {
          "components": [
            {
              "internalType": "string",
              "name": "name",
              "type": "string"
            },
            {
              "internalType": "string",
              "name": "symbol",
              "type": "string"
            },
            {
              "internalType": "string",
              "name": "logoURI",
              "type": "string"
            },
            {
              "internalType": "string",
              "name": "xAccount",
              "type": "string"
            },
            {
              "internalType": "string",
              "name": "website",
              "type": "string"
            },
            {
              "internalType": "string",
              "name": "extraLink",
              "type": "string"
            },
            {
              "internalType": "uint256",
              "name": "totalSupply",
              "type": "uint256"
            },
            {
              "internalType": "uint256",
              "name": "curveBps",
              "type": "uint256"
            },
            {
              "internalType": "uint256",
              "name": "liquidityTokenBps",
              "type": "uint256"
            },
            {
              "internalType": "uint256",
              "name": "basePrice",
              "type": "uint256"
            },
            {
              "internalType": "uint256",
              "name": "priceSlope",
              "type": "uint256"
            },
            {
              "internalType": "uint256",
              "name": "graduationTarget",
              "type": "uint256"
            },
            {
              "internalType": "uint256",
              "name": "liquidityBps",
              "type": "uint256"
            },
            {
              "internalType": "uint256",
              "name": "protocolFeeBps",
              "type": "uint256"
            },
            {
              "internalType": "address",
              "name": "router",
              "type": "address"
            },
            {
              "internalType": "address",
              "name": "lpReceiver",
              "type": "address"
            },
            {
              "internalType": "address",
              "name": "feeRecipient",
              "type": "address"
            },
            {
              "internalType": "address",
              "name": "creator",
              "type": "address"
            },
            {
              "internalType": "address",
              "name": "factory",
              "type": "address"
            }
          ],
          "internalType": "struct LaunchCampaign.InitParams",
          "name": "params",
          "type": "tuple"
        }
      ],
      "name": "initialize",
      "outputs": [],
      "stateMutability": "nonpayable",
      "type": "function"
    },
    {
      "inputs": [],
      "name": "launched",
      "outputs": [
        {
          "internalType": "bool",
          "name": "",
          "type": "bool"
        }
      ],
      "stateMutability": "view",
      "type": "function"
    },
    {
      "inputs": [],
      "name": "liquidityBps",
      "outputs": [
        {
          "internalType": "uint256",
          "name": "",
          "type": "uint256"
        }
      ],
      "stateMutability": "view",
      "type": "function"
    },
    {
      "inputs": [],
      "name": "liquiditySupply",
      "outputs": [
        {
          "internalType": "uint256",
          "name": "",
          "type": "uint256"
        }
      ],
      "stateMutability": "view",
      "type": "function"
    },
    {
      "inputs": [],
      "name": "logoURI",
      "outputs": [
        {
          "internalType": "string",
          "name": "",
          "type": "string"
        }
      ],
      "stateMutability": "view",
      "type": "function"
    },
    {
      "inputs": [],
      "name": "lpReceiver",
      "outputs": [
        {
          "internalType": "address",
          "name": "",
          "type": "address"
        }
      ],
      "stateMutability": "view",
      "type": "function"
    },
    {
      "inputs": [],
      "name": "owner",
      "outputs": [
        {
          "internalType": "address",
          "name": "",
          "type": "address"
        }
      ],
      "stateMutability": "view",
      "type": "function"
    },
    {
      "inputs": [],
      "name": "priceSlope",
      "outputs": [
        {
          "internalType": "uint256",
          "name": "",
          "type": "uint256"
        }
      ],
      "stateMutability": "view",
      "type": "function"
    },
    {
      "inputs": [],
      "name": "protocolFeeBps",
      "outputs": [
        {
          "internalType": "uint256",
          "name": "",
          "type": "uint256"
        }
      ],
      "stateMutability": "view",
      "type": "function"
    },
    {
      "inputs": [
        {
          "internalType": "uint256",
          "name": "totalInWei",
          "type": "uint256"
        }
      ],
      "name": "quoteBuyExactBnb",
      "outputs": [
        {
          "internalType": "uint256",
          "name": "tokensOut",
          "type": "uint256"
        },
        {
          "internalType": "uint256",
          "name": "totalCostWei",
          "type": "uint256"
        },
        {
          "internalType": "uint256",
          "name": "feeWei",
          "type": "uint256"
        }
      ],
      "stateMutability": "view",
      "type": "function"
    },
    {
      "inputs": [
        {
          "internalType": "uint256",
          "name": "amountOut",
          "type": "uint256"
        }
      ],
      "name": "quoteBuyExactTokens",
      "outputs": [
        {
          "internalType": "uint256",
          "name": "",
          "type": "uint256"
        }
      ],
      "stateMutability": "view",
      "type": "function"
    },
    {
      "inputs": [
        {
          "internalType": "uint256",
          "name": "amountIn",
          "type": "uint256"
        }
      ],
      "name": "quoteSellExactTokens",
      "outputs": [
        {
          "internalType": "uint256",
          "name": "",
          "type": "uint256"
        }
      ],
      "stateMutability": "view",
      "type": "function"
    },
    {
      "inputs": [],
      "name": "renounceOwnership",
      "outputs": [],
      "stateMutability": "nonpayable",
      "type": "function"
    },
    {
      "inputs": [],
      "name": "router",
      "outputs": [
        {
          "internalType": "contract IPancakeRouter02",
          "name": "",
          "type": "address"
        }
      ],
      "stateMutability": "view",
      "type": "function"
    },
    {
      "inputs": [
        {
          "internalType": "uint256",
          "name": "amountIn",
          "type": "uint256"
        },
        {
          "internalType": "uint256",
          "name": "minPayout",
          "type": "uint256"
        }
      ],
      "name": "sellExactTokens",
      "outputs": [
        {
          "internalType": "uint256",
          "name": "payout",
          "type": "uint256"
        }
      ],
      "stateMutability": "nonpayable",
      "type": "function"
    },
    {
      "inputs": [],
      "name": "sold",
      "outputs": [
        {
          "internalType": "uint256",
          "name": "",
          "type": "uint256"
        }
      ],
      "stateMutability": "view",
      "type": "function"
    },
    {
      "inputs": [],
      "name": "token",
      "outputs": [
        {
          "internalType": "contract LaunchToken",
          "name": "",
          "type": "address"
        }
      ],
      "stateMutability": "view",
      "type": "function"
    },
    {
      "inputs": [],
      "name": "totalBuyVolumeWei",
      "outputs": [
        {
          "internalType": "uint256",
          "name": "",
          "type": "uint256"
        }
      ],
      "stateMutability": "view",
      "type": "function"
    },
    {
      "inputs": [],
      "name": "totalSellVolumeWei",
      "outputs": [
        {
          "internalType": "uint256",
          "name": "",
          "type": "uint256"
        }
      ],
      "stateMutability": "view",
      "type": "function"
    },
    {
      "inputs": [],
      "name": "totalSupply",
      "outputs": [
        {
          "internalType": "uint256",
          "name": "",
          "type": "uint256"
        }
      ],
      "stateMutability": "view",
      "type": "function"
    },
    {
      "inputs": [
        {
          "internalType": "address",
          "name": "newOwner",
          "type": "address"
        }
      ],
      "name": "transferOwnership",
      "outputs": [],
      "stateMutability": "nonpayable",
      "type": "function"
    },
    {
      "inputs": [],
      "name": "website",
      "outputs": [
        {
          "internalType": "string",
          "name": "",
          "type": "string"
        }
      ],
      "stateMutability": "view",
      "type": "function"
    },
    {
      "inputs": [],
      "name": "xAccount",
      "outputs": [
        {
          "internalType": "string",
          "name": "",
          "type": "string"
        }
      ],
      "stateMutability": "view",
      "type": "function"
    },
    {
      "stateMutability": "payable",
      "type": "receive"
    }
  ],
  "bytecode": "0x6080806040523461006b576001600081815581546001600160a01b031981168317835582916001600160a01b03909116907f8be0079c531659141344cd1fd0a4f28419497f9722a3daafe3b4186f6b6457e09080a360ff19601c541617601c55613c8c90816100718239f35b600080fdfe60808060405260043610156200001f575b5036156200001d57600080fd5b005b600090813560e01c90816302c7e7af146200249f5750806318160ddd146200247f5780631f0c57fc14620024545780632138a4c0146200243457806335659fb81462002414578063365d57a414620023f4578063366ad25014620023605780633794f6be14620021f2578063381562c214620021d25780634690484014620021a757806354354629146200218757806354e42f7e146200216757806360068dd81462002124578063651618311462001fce5780636915712d1462001e475780636bb38b281462001d87578063715018a61462001d375780638091f3bf1462001d1257806386f2ece01462001cf257806389f2f0851462001cd25780638da5cb5b1462001ca75780639d1b464a1462001c7a5780639e6ea74d1462001ae1578063a4b20f131462001ac1578063af7695451462001a1c578063b6013cef1462001465578063b915d4be146200142f578063ba49a08c146200140f578063beb0a4161462001372578063c45a01551462001347578063c7876ea41462001327578063c9f62af21462001307578063dd1a2a39146200126a578063eabae8541462000552578063ed33da27146200038d578063f20f3d9014620002b3578063f2fde38b1462000254578063f887ea4014620002295763fc0c546a0362000010573462000226578060031936011262000226576002546040516001600160a01b039091168152602090f35b80fd5b503462000226578060031936011262000226576004546040516001600160a01b039091168152602090f35b503462000226576020366003190112620002265762000272620024d9565b6200027c62002a52565b6001600160a01b038116156200029a57620002979062002a7f565b80f35b604051631e4fbdf760e01b815260048101839052602490fd5b50346200022657806003193601126200022657604051600954600082620002da8362002505565b91828252602093600190856001821691826000146200036b57505060011462000327575b506200030d9250038362002572565b6200032360405192828493845283019062002596565b0390f35b849150600960005281600020906000915b858310620003525750506200030d935082010185620002fe565b8054838901850152879450869390920191810162000338565b60ff1916858201526200030d95151560051b8501019250879150620002fe9050565b5060603660031901126200022657620003a5620024d9565b6005546001600160a01b039060243590620003c49083163314620027a7565b620003ce62002985565b81831691620003df831515620027e3565b620003f060ff6016541615620026a0565b6200041f60155462000418620004116200040b868462002719565b62002bc3565b9162002bc3565b906200267c565b936200042b8562002960565b90620004646200043c838862002719565b966200044d604435891115620026e1565b6200045b8834101562002727565b60185462002719565b601855848752601b60205260408720805460ff81161562000519575b5050836001959360008051602062003c6083398151915293620004bf83604095620004b160209d9a60155462002719565b601555846003541662002a25565b8062000502575b5050863411620004e5575b81519081528688820152a255604051908152f35b620004fc620004f588346200267c565b33620029a9565b620004d1565b620005119160065416620029a9565b3880620004c6565b60019060ff1916179055601a54600181018091116200053e57601a5583600162000480565b634e487b7160e01b88526011600452602488fd5b503462000226576003199060203683011262000226576001600160401b0360043511620002265761026080926004353603011262000226576040519182016001600160401b0381118382101762001254576040526004803501356001600160401b0381116200125057620005ce906004369181350101620025f4565b8252600435602401356001600160401b0381116200125057620005f9906004369181350101620025f4565b6020830190815290600435604401356001600160401b03811162001250576200062a906004369181350101620025f4565b6040840152600435606401356001600160401b038111620012505762000658906004369181350101620025f4565b6060840152600435608401356001600160401b038111620012505762000686906004369181350101620025f4565b608084015260043560a401356001600160401b0381116200125057620006b4906004369181350101620025f4565b60a084015260043560c481013560c085015260e481013560e08501526101048101356101008501526101248101356101208501526101448101356101408501526101648101356101608501526101848101356101808501526101a48101356101a085015262000727906101c401620024f0565b6101c08401526200073e6101e460043501620024f0565b6101e08401526200075561020460043501620024f0565b6102008401526200076c61022460043501620024f0565b6102208401526200078361024460043501620024f0565b610240840152601c5460ff81166200121d5760ff1916600117601c5560c083015115620011e75760e08301518015159081620011da575b5015620011a957612710620007da60e08501516101008601519062002719565b116200117157610120830151156200113f57610140830151156200110d576101c08301516001600160a01b031615620010da576102208301516001600160a01b031615620010a6576127106101808401511162001071576127106101a0840151116200103d57604083015151156200100d5761022083015162000866906001600160a01b031662002a7f565b604083015180519093906001600160401b03811162000d49576200088c60085462002505565b601f811162000fba575b506020601f821160011462000f41578394958293949262000f35575b50508160011b916000199060031b1c1916176008555b606081015180519093906001600160401b03811162000f2157620008ee60095462002505565b601f811162000ece575b506020601f821160011462000e55578495829394959262000e49575b50508160011b916000199060031b1c1916176009555b608082015180519093906001600160401b03811162000e355762000950600a5462002505565b601f811162000de2575b506020601f821160011462000d69578293949582939262000d5d575b50508160011b916000199060031b1c191617600a555b60a083015180519093906001600160401b03811162000d4957620009b2600b5462002505565b601f811162000cf6575b506020601f821160011462000c7d578394958293949262000c71575b50508160011b916000199060031b1c191617600b555b610120810151600c55610140810151600d55610160810151600e55610180810151600f556101a0810151601055610240810151600580546001600160a01b03199081166001600160a01b0393841617909155610200830151600680549092169083161790556101e0820151168062000c6b57506102208101516001600160a01b03165b600780546001600160a01b039283166001600160a01b0319918216179091556101c08301516004805491909316911617905560c0810151601181905560e082015162000afd9162000b03916127109162000acc919062002821565b048060125561271062000aea60c08601516101008701519062002821565b049283918260135560c08601516200267c565b6200267c565b6014551562000c35578051925160c082015160405190949091610f6a80840192906001600160401b0384118585101762000c215786979262000b5b86959362000b6a9362002c56883960808552608085019062002596565b90838203602085015262002596565b916040820152606030910152039083f0801562000c1257600280546001600160a01b03198082166001600160a01b0390941693841790925560038054909216908516909217918217905560c0919091015190803b1562000c1d576040516340c10f1960e01b8152918391839182908490829062000bec90306004840162002835565b03925af1801562000c125762000bff5750f35b62000c0a9062002542565b620002265780f35b6040513d84823e3d90fd5b5050fd5b634e487b7160e01b87526041600452602487fd5b60405162461bcd60e51b815260206004820152600e60248201526d6c6971756964697479207a65726f60901b6044820152606490fd5b62000a71565b015190503880620009d8565b600b845260008051602062003c4083398151915290845b601f198416811062000cdd575060019394959683601f1981161062000cc3575b505050811b01600b55620009ee565b015160001960f88460031b161c1916905538808062000cb4565b9091602060018192858b01518155019301910162000c94565b600b845260008051602062003c40833981519152601f830160051c81016020841062000d41575b601f830160051c8201811062000d35575050620009bc565b85815560010162000d1d565b508062000d1d565b634e487b7160e01b83526041600452602483fd5b01519050388062000976565b600a835260008051602062003bc083398151915290835b601f198416811062000dc9575060019394959683601f1981161062000daf575b505050811b01600a556200098c565b015160001960f88460031b161c1916905538808062000da0565b9091602060018192858b01518155019301910162000d80565b600a835260008051602062003bc0833981519152601f830160051c81016020841062000e2d575b601f830160051c8201811062000e215750506200095a565b84815560010162000e09565b508062000e09565b634e487b7160e01b82526041600452602482fd5b01519050388062000914565b6009855260008051602062003c2083398151915290855b601f198416811062000eb5575060019394959683601f1981161062000e9b575b505050811b016009556200092a565b015160001960f88460031b161c1916905538808062000e8c565b9091602060018192858b01518155019301910162000e6c565b6009855260008051602062003c20833981519152601f830160051c81016020841062000f19575b601f830160051c8201811062000f0d575050620008f8565b86815560010162000ef5565b508062000ef5565b634e487b7160e01b84526041600452602484fd5b015190503880620008b2565b6008845260008051602062003c0083398151915290845b601f198416811062000fa1575060019394959683601f1981161062000f87575b505050811b01600855620008c8565b015160001960f88460031b161c1916905538808062000f78565b9091602060018192858b01518155019301910162000f58565b6008845260008051602062003c00833981519152601f830160051c81016020841062001005575b601f830160051c8201811062000ff957505062000896565b85815560010162000fe1565b508062000fe1565b60405162461bcd60e51b81526020600482015260086024820152676c6f676f2075726960c01b6044820152606490fd5b60405162461bcd60e51b815260206004820152600c60248201526b70726f746f636f6c2062707360a01b6044820152606490fd5b60405162461bcd60e51b815260206004820152600d60248201526c6c69717569646974792062707360981b6044820152606490fd5b60405162461bcd60e51b815260206004820152600c60248201526b63726561746f72207a65726f60a01b6044820152606490fd5b60405162461bcd60e51b815260206004820152600b60248201526a726f75746572207a65726f60a81b6044820152606490fd5b60405162461bcd60e51b815260206004820152600a602482015269736c6f7065207a65726f60b01b6044820152606490fd5b60405162461bcd60e51b815260206004820152600a6024820152697072696365207a65726f60b01b6044820152606490fd5b60405162461bcd60e51b815260206004820152601060248201526f706f7274696f6e206f766572666c6f7760801b6044820152606490fd5b60405162461bcd60e51b815260206004820152600960248201526863757276652062707360b81b6044820152606490fd5b61271091501038620007ba565b60405162461bcd60e51b815260206004820152600e60248201526d696e76616c696420737570706c7960901b6044820152606490fd5b60405162461bcd60e51b815260206004820152600b60248201526a1a5b9a5d1a585b1a5e995960aa1b6044820152606490fd5b5080fd5b634e487b7160e01b600052604160045260246000fd5b50346200022657806003193601126200022657604051600b54600082620012918362002505565b91828252602093600190856001821691826000146200036b575050600114620012c357506200030d9250038362002572565b849150600b60005281600020906000915b858310620012ee5750506200030d935082010185620002fe565b80548389018501528794508693909201918101620012d4565b503462000226578060031936011262000226576020600f54604051908152f35b503462000226578060031936011262000226576020600c54604051908152f35b503462000226578060031936011262000226576005546040516001600160a01b039091168152602090f35b50346200022657806003193601126200022657604051600a54600082620013998362002505565b91828252602093600190856001821691826000146200036b575050600114620013cb57506200030d9250038362002572565b849150600a60005281600020906000915b858310620013f65750506200030d935082010185620002fe565b80548389018501528794508693909201918101620013dc565b503462000226578060031936011262000226576020601a54604051908152f35b503462000226576020366003190112620002265760606200145260043562002850565b9060405192835260208301526040820152f35b503462000226576200147736620024bd565b6200148162002a52565b6200148b62002985565b829183916016549160ff8316620019eb57601554601254148015620019de575b15620019ad576001620014d59360ff19161760165542601755476127109384916010549062002821565b04928315158062001998575b62001979575b620014f647600f549062002821565b049060135491821515806200196f575b620016ac575b505050508362001522601254601554906200267c565b8062001634575b5050601454806200160e575b504780620015ef575b60025485906001600160a01b0316803b15620012505781906004604051809481936322a3148f60e21b83525af18015620015e457620015c8575b50936001916040958651918683528560208401528783015260608201527fd286a958d004cd376acc3762fff407f0dd9bf991995fc81a26ff88081f2b7d1b60803392a25582519182526020820152f35b620015d4869162002542565b620015e0573862001578565b8480fd5b6040513d88823e3d90fd5b600154620016089082906001600160a01b0316620029a9565b6200153e565b6003546001546200162d92916001600160a01b03918216911662002a25565b3862001535565b6002546001600160a01b031690813b15620016a85782916200166e91604051948580948193632770a7eb60e21b8352306004840162002835565b03925af180156200169d5762001687575b849062001529565b620016959094919462002542565b92386200167f565b6040513d87823e3d90fd5b8280fd5b60035460045460405163095ea7b360e01b6020820152959850939650919390926001600160a01b039081169216620016fd82620016ee89866024840162002835565b03601f19810184528362002572565b602089835182850182855af189513d8262001950575b50501562001913575b50506004546002546007546001600160a01b03918216949350918116911642610708810110620018ff5791606094939160c493604051998a96879563f305d71960e01b875260048701528a6024870152604486015260648501526084840152610708420160a48401525af18015620018f45784938591620018b1575b5060035460045460405163095ea7b360e01b60208083019182526001600160a01b039384166024840181905260448085018c905284529597958995909416918a90620017e48562002556565b84519082855af189513d8262001892575b50501562001848575b50505080821162001812575b80806200150c565b60035460015462001840936001600160a01b0392831693929091169162001839916200267c565b9162002a25565b38806200180a565b6200188362001889936040519063095ea7b360e01b602083015260248201528a6044820152604481526200187c8162002556565b8262002be9565b62002be9565b388080620017fe565b909150620018a85750803b15155b3880620017f5565b600114620018a0565b9350506060833d606011620018eb575b81620018d06060938362002572565b81010312620018e757602083519301513862001798565b8380fd5b3d9150620018c1565b6040513d86823e3d90fd5b634e487b7160e01b89526011600452602489fd5b6200188362001947936040519063095ea7b360e01b602083015260248201528a6044820152604481526200187c8162002556565b3880806200171c565b909150620019665750803b15155b388062001713565b6001146200195e565b5080151562001506565b600654620019929085906001600160a01b0316620029a9565b620014e7565b506006546001600160a01b03161515620014e1565b60405162461bcd60e51b81526020600482015260096024820152681d1a1c995cda1bdb1960ba1b6044820152606490fd5b5047600e541115620014ab565b60405162461bcd60e51b8152602060048201526009602482015268199a5b985b1a5e995960ba1b6044820152606490fd5b503462000226576020366003190112620002265760043562001a4081151562002641565b60155462001a4f828262002719565b6012541062001a915762001a778162000418620004116200040b60209662001a899662002719565b62001a828162002960565b9062002719565b604051908152f35b60405162461bcd60e51b81526020600482015260086024820152671cdbdb19081bdd5d60c21b6044820152606490fd5b503462000226578060031936011262000226576020600e54604051908152f35b506040366003190112620002265762001af9620024d9565b6005546001600160a01b039062001b149082163314620027a7565b62001b1e62002985565b80821662001b2e811515620027e3565b62001b3f60ff6016541615620026a0565b62001b4a3462002850565b5092909362001b5b85151562002641565b62001b6b602435861015620026e1565b62001b8660155462000418620004116200040b898462002719565b9062001bb062001b968362002960565b926200045b62001ba7858362002719565b97881462002769565b601855838752601b60205260408720805460ff81161562001c53575b5050916001939162001bea8760409995620004b18260155462002719565b8062001c3c575b505083341162001c26575b60008051602062003c60833981519152868051878152866020820152a25582519182526020820152f35b62001c36620004f585346200267c565b62001bfc565b62001c4b9160065416620029a9565b388062001bf1565b60019060ff1916179055601a54600181018091116200053e57601a558162001bea62001bcc565b50346200022657806003193601126200022657602062001a89600c5462001a82600d546015549062002ab7565b503462000226578060031936011262000226576001546040516001600160a01b039091168152602090f35b503462000226578060031936011262000226576020601954604051908152f35b503462000226578060031936011262000226576020601854604051908152f35b50346200022657806003193601126200022657602060ff601654166040519015158152f35b5034620002265780600319360112620002265762001d5462002a52565b600180546001600160a01b0319811690915581906001600160a01b031660008051602062003be08339815191528280a380f35b503462000226578060031936011262000226576040519080826008549162001daf8362002505565b928383526020946001918660018216918260001462001e2357505060011462001de3575b50506200030d9250038362002572565b90859250600882528282205b85831062001e0a5750506200030d9350820101388062001dd3565b8054838901850152879450869390920191810162001def565b92509350506200030d94915060ff191682840152151560051b820101388062001dd3565b506020366003190112620002265762001e5f62002985565b62001e7060ff6016541615620026a0565b62001e7b3462002850565b5062001e8982151562002641565b62001e99600435831015620026e1565b62001eb460155462000418620004116200040b868462002719565b62001edd62001ec38262002960565b916200045b62001ed4848362002719565b94851462002769565b601855338452601b60205260408420805460ff81161562001f95575b505060409360019162001f0f8560155462002719565b601555828060a01b039062001f2a8633846003541662002a25565b8062001f7e575b505082341162001f68575b845184815283602082015260008051602062003c60833981519152863392a25582519182526020820152f35b62001f78620004f584346200267c565b62001f3c565b62001f8d9160065416620029a9565b388062001f31565b60019060ff1916179055601a546001810180911162001fba57601a5583600162001ef9565b634e487b7160e01b85526011600452602485fd5b5062001fda36620024bd565b9062001fe562002985565b62001ff660ff6016541615620026a0565b6200201160155462000418620004116200040b858462002719565b62002049620020208262002960565b916200203b62002031848362002719565b95861115620026e1565b6200045b8534101562002727565b601855338452601b60205260408420805460ff811615620020ff575b505092816020946200207c60019460155462002719565b601555838060a01b0390620020978333846003541662002a25565b80620020e8575b5050833411620020d2575b604051908152838582015260008051602062003c6083398151915260403392a255604051908152f35b620020e2620004f585346200267c565b620020a9565b620020f79160065416620029a9565b38806200209e565b60019060ff1916179055601a546001810180911162001fba57601a5581602062002065565b503462000226576020366003190112620002265760209060ff906040906001600160a01b0362002153620024d9565b168152601b84522054166040519015158152f35b503462000226578060031936011262000226576020600d54604051908152f35b503462000226578060031936011262000226576020601454604051908152f35b503462000226578060031936011262000226576006546040516001600160a01b039091168152602090f35b503462000226578060031936011262000226576020601354604051908152f35b503462000226576200220436620024bd565b906200220f62002985565b6200222060ff6016541615620026a0565b60155462002242620022328262002bc3565b620004186200040b85856200267c565b906200226e83620022538462002960565b9262000afd6200226485876200267c565b97881015620026e1565b6015556003546040516323b872dd60e01b6020820152336024820152306044820152606480820186905281526001600160a01b039291831660a082016001600160401b038111838210176200234c5792620022da60209996936001989693620022f89660405262002be9565b8062002335575b5050620022ef8633620029a9565b60195462002719565b60195560405190815283858201527f2dcf9433d75db0d8b1c172641f85e319ffe4ad22e108a95d1847ceb906e5195d60403392a255604051908152f35b620023449160065416620029a9565b3880620022e1565b634e487b7160e01b89526041600452602489fd5b50346200022657602036600319011262000226576004356200238481151562002641565b601554808211620023c057620023b581620004186200040b602095620023ae62001a899662002bc3565b936200267c565b620004188162002960565b60405162461bcd60e51b815260206004820152600c60248201526b195e18d959591cc81cdbdb1960a21b6044820152606490fd5b503462000226578060031936011262000226576020601754604051908152f35b503462000226578060031936011262000226576020601054604051908152f35b503462000226578060031936011262000226576020601254604051908152f35b503462000226578060031936011262000226576007546040516001600160a01b039091168152602090f35b503462000226578060031936011262000226576020601154604051908152f35b90503462001250578160031936011262001250576020906015548152f35b6040906003190112620024d4576004359060243590565b600080fd5b600435906001600160a01b0382168203620024d457565b35906001600160a01b0382168203620024d457565b90600182811c9216801562002537575b60208310146200252157565b634e487b7160e01b600052602260045260246000fd5b91607f169162002515565b6001600160401b0381116200125457604052565b608081019081106001600160401b038211176200125457604052565b601f909101601f19168101906001600160401b038211908210176200125457604052565b919082519283825260005b848110620025c3575050826000602080949584010152601f8019910116010190565b602081830181015184830182015201620025a1565b6001600160401b0381116200125457601f01601f191660200190565b81601f82011215620024d4578035906200260e82620025d8565b926200261e604051948562002572565b82845260208383010111620024d457816000926020809301838601378301015290565b156200264957565b60405162461bcd60e51b815260206004820152600b60248201526a1e995c9bc8185b5bdd5b9d60aa1b6044820152606490fd5b919082039182116200268a57565b634e487b7160e01b600052601160045260246000fd5b15620026a857565b60405162461bcd60e51b815260206004820152601160248201527018d85b5c185a59db881b185d5b98da1959607a1b6044820152606490fd5b15620026e957565b60405162461bcd60e51b8152602060048201526008602482015267736c69707061676560c01b6044820152606490fd5b919082018092116200268a57565b156200272f57565b60405162461bcd60e51b8152602060048201526012602482015271696e73756666696369656e742076616c756560701b6044820152606490fd5b156200277157565b60405162461bcd60e51b815260206004820152600e60248201526d0e2eadee8ca40dad2e6dac2e8c6d60931b6044820152606490fd5b15620027af57565b60405162461bcd60e51b815260206004820152600c60248201526b4f4e4c595f464143544f525960a01b6044820152606490fd5b15620027eb57565b60405162461bcd60e51b815260206004820152600e60248201526d1e995c9bc81c9958da5c1a595b9d60921b6044820152606490fd5b818102929181159184041417156200268a57565b6001600160a01b039091168152602081019190915260400190565b908115620029565760ff6016541662002956576012546200287560155480926200267c565b9283156200294a57600093905b818510620028d35750508215620028c8578062000418620004116200040b86620028ac9562002719565b90620028c4620028bc8362002960565b809362002719565b9190565b506000915081908190565b9093620028e1858262002719565b60018082018092116200268a571c90826200291462001a77620029096200040b868962002719565b620004188862002bc3565b11620029245750935b9062002882565b94506000198101908111156200291d57634e487b7160e01b600052601160045260246000fd5b50600092508291829150565b6000915081908190565b6010549081156200297e57612710916200297a9162002821565b0490565b5050600090565b60026000541462002997576002600055565b604051633ee5aeb560e01b8152600490fd5b600080809381935af13d1562002a1f573d620029c581620025d8565b90620029d5604051928362002572565b8152600060203d92013e5b15620029e857565b60405162461bcd60e51b815260206004820152600f60248201526e1d1c985b9cd9995c8819985a5b1959608a1b6044820152606490fd5b620029e0565b6200188362002a509392620016ee60405194859263a9059cbb60e01b60208501526024840162002835565b565b6001546001600160a01b0316330362002a6757565b60405163118cdaa760e01b8152336004820152602490fd5b600180546001600160a01b039283166001600160a01b03198216811790925590911660008051602062003be0833981519152600080a3565b906000198183098183029182808310920391808303921462002b2f57670de0b6b3a7640000908282111562002b1c577faccb18165bd6fe31ae1cf318dc5b51eee0e1ba569b88cd74c1773b91fac10669940990828211900360ee1b910360121c170290565b634e487b7160005260116020526024601cfd5b5050670de0b6b3a764000091500490565b906000198183098183029182808310920391808303921462002bab576a0c097ce7bc90715b34b9f160251b908282111562002b1c577f356317ffa45f828d2a41175b2aed3a20e7fdd4a4e46cc11944d93b01be7b1711940990828211900360db1b910360251c170290565b50506a0c097ce7bc90715b34b9f160251b9004919050565b62002be69062001a8262002bda600c548362002ab7565b918002600d5462002b40565b90565b906000602091828151910182855af11562002c49576000513d62002c3f57506001600160a01b0381163b155b62002c1d5750565b604051635274afe760e01b81526001600160a01b039091166004820152602490fd5b6001141562002c15565b6040513d6000823e3d90fdfe60a060405234620003de5762000f6a803803806200001d81620003e3565b9283398101608082820312620003de5781516001600160401b039190828111620003de57816200004f91850162000409565b6020918285015190848211620003de576200006c91860162000409565b90606060408601519501519060018060a01b0394858316809303620003de578151818111620002de576003908154906001948583811c93168015620003d3575b89841014620003bd578190601f9384811162000367575b5089908483116001146200030057600092620002f4575b505060001982851b1c191690851b1782555b8551928311620002de5760049586548581811c91168015620002d3575b89821014620002be5782811162000273575b50879184116001146200020857938394918492600095620001fc575b50501b92600019911b1c19161782555b8015620001e457600580546001600160a01b03198116831790915560405194167f8be0079c531659141344cd1fd0a4f28419497f9722a3daafe3b4186f6b6457e0600080a38315620001b75783608052604051610aee90816200047c823960805181818161052001526105f30152f35b62461bcd60e51b8352820152600b60248201526a636170206973207a65726f60a81b604482015260649150fd5b604051631e4fbdf760e01b8152600081840152602490fd5b01519350388062000137565b9190601f198416928760005284896000209460005b8b898383106200025b575050501062000240575b50505050811b01825562000147565b01519060f884600019921b161c191690553880808062000231565b8686015189559097019694850194889350016200021d565b87600052886000208380870160051c8201928b8810620002b4575b0160051c019086905b828110620002a75750506200011b565b6000815501869062000297565b925081926200028e565b602288634e487b7160e01b6000525260246000fd5b90607f169062000109565b634e487b7160e01b600052604160045260246000fd5b015190503880620000da565b90879350601f19831691866000528b6000209260005b8d82821062000350575050841162000337575b505050811b018255620000ec565b015160001983871b60f8161c1916905538808062000329565b8385015186558b9790950194938401930162000316565b90915084600052896000208480850160051c8201928c8610620003b3575b918991869594930160051c01915b828110620003a3575050620000c3565b6000815585945089910162000393565b9250819262000385565b634e487b7160e01b600052602260045260246000fd5b92607f1692620000ac565b600080fd5b6040519190601f01601f191682016001600160401b03811183821017620002de57604052565b919080601f84011215620003de5782516001600160401b038111620002de576020906200043f601f8201601f19168301620003e3565b92818452828287010111620003de5760005b8181106200046757508260009394955001015290565b85810183015184820184015282016200045156fe6080604081815260048036101561001557600080fd5b600092833560e01c90816306fdde03146107df57508063095ea7b31461073657806318160ddd1461071757806323b872dd14610632578063313ce56714610616578063355274ea146105db57806340c10f19146104d95780634ada218b146104b257806370a082311461047b578063715018a6146104305780638a8c523c146103fe5780638da5cb5b146103d557806395d89b41146102d15780639dc29fac146101d6578063a9059cbb146101a5578063dd62ed3e146101585763f2fde38b146100de57600080fd5b34610154576020366003190112610154576100f7610901565b90610100610a75565b6001600160a01b0391821692831561013e575050600580546001600160a01b03198116841790915516600080516020610aa28339815191528380a380f35b51631e4fbdf760e01b8152908101849052602490fd5b8280fd5b5050346101a157806003193601126101a15780602092610176610901565b61017e61091c565b6001600160a01b0391821683526001865283832091168252845220549051908152f35b5080fd5b5050346101a157806003193601126101a1576020906101cf6101c5610901565b6024359033610973565b5160018152f35b508290346101a157826003193601126101a1576101f1610901565b90602435906101fe610a75565b6001600160a01b03838116939084156102ba5760055460ff8160a01c1615610288575b5050838552846020528585205491838310610269575050818495600080516020610ac2833981519152936020938688528785520381872055816002540360025551908152a380f35b6102848484895194859463391434e360e21b86528501610955565b0390fd5b168085141590816102af575b506102a0578680610221565b5084516312f1f92360e01b8152fd5b905033141587610294565b8651634b637e8f60e11b8152808401879052602490fd5b509190346101a157816003193601126101a15780519082845460018160011c90600183169283156103cb575b60209384841081146103b85783885290811561039c5750600114610364575b505050829003601f01601f19168201926001600160401b03841183851017610351575082918261034d9252826108b8565b0390f35b634e487b7160e01b815260418552602490fd5b919250868652828620918387935b838510610388575050505083010138808061031c565b805488860183015293019284908201610372565b60ff1916878501525050151560051b840101905038808061031c565b634e487b7160e01b895260228a52602489fd5b91607f16916102fd565b5050346101a157816003193601126101a15760055490516001600160a01b039091168152602090f35b833461042d578060031936011261042d57610417610a75565b6005805460ff60a01b1916600160a01b17905580f35b80fd5b833461042d578060031936011261042d57610449610a75565b600580546001600160a01b0319811690915581906001600160a01b0316600080516020610aa28339815191528280a380f35b5050346101a15760203660031901126101a15760209181906001600160a01b036104a3610901565b16815280845220549051908152f35b5050346101a157816003193601126101a15760209060ff60055460a01c1690519015158152f35b5090346101545780600319360112610154576104f3610901565b9060243591610500610a75565b6001600160a01b03169283156105af576002549061051e8483610932565b7f00000000000000000000000000000000000000000000000000000000000000001061057d575082600080516020610ac2833981519152926105638795602094610932565b60025585855284835280852082815401905551908152a380f35b606490602084519162461bcd60e51b8352820152600c60248201526b18d85c08195e18d95959195960a21b6044820152fd5b6020606492519162461bcd60e51b83528201526007602482015266746f207a65726f60c81b6044820152fd5b5050346101a157816003193601126101a157602090517f00000000000000000000000000000000000000000000000000000000000000008152f35b5050346101a157816003193601126101a1576020905160128152f35b50823461042d57606036600319011261042d5761064d610901565b61065561091c565b916044359360018060a01b038316808352600160205286832033845260205286832054916000198310610691575b6020886101cf898989610973565b8683106106f95781156106e25733156106cb575082526001602090815286832033845281529186902090859003905582906101cf87610683565b8751634a1406b160e11b8152908101849052602490fd5b875163e602df0560e01b8152908101849052602490fd5b9050610284868851938493637dc7a0d960e11b855233908501610955565b5050346101a157816003193601126101a1576020906002549051908152f35b503461015457816003193601126101545761074f610901565b6024359033156107c8576001600160a01b03169182156107b157508083602095338152600187528181208582528752205582519081527f8c5be1e5ebec7d5bd14f71427d1e84f3dd0314c0f7b2291e5b200ac8c7c3b925843392a35160018152f35b8351634a1406b160e11b8152908101859052602490fd5b835163e602df0560e01b8152808401869052602490fd5b84915083346101545782600319360112610154578260035460018160011c90600183169283156108ae575b60209384841081146103b857838852908115610892575060011461085957505050829003601f01601f19168201926001600160401b03841183851017610351575082918261034d9252826108b8565b91925060038652828620918387935b83851061087e575050505083010185808061031c565b805488860183015293019284908201610868565b60ff1916878501525050151560051b840101905085808061031c565b91607f169161080a565b6020808252825181830181905290939260005b8281106108ed57505060409293506000838284010152601f8019910116010190565b8181018601518482016040015285016108cb565b600435906001600160a01b038216820361091757565b600080fd5b602435906001600160a01b038216820361091757565b9190820180921161093f57565b634e487b7160e01b600052601160045260246000fd5b604091949392606082019560018060a01b0316825260208201520152565b6001600160a01b0392838216929091908315610a5c578416938415610a435760055460ff8160a01c1615610a0e575b5050600090838252816020526040822054908382106109f157509160408282600080516020610ac2833981519152958760209652828652038282205586815220818154019055604051908152a3565b6102848460405193849363391434e360e21b855260048501610955565b16808414159081610a38575b50610a265738806109a2565b6040516312f1f92360e01b8152600490fd5b905033141538610a1a565b60405163ec442f0560e01b815260006004820152602490fd5b604051634b637e8f60e11b815260006004820152602490fd5b6005546001600160a01b03163303610a8957565b60405163118cdaa760e01b8152336004820152602490fdfe8be0079c531659141344cd1fd0a4f28419497f9722a3daafe3b4186f6b6457e0ddf252ad1be2c89b69c2b068fc378daa952ba7f163c4a11628f55a4df523b3efa164736f6c6343000818000ac65a7bb8d6351c1cf70c95a316cc6a92839c986682d98bc35f958f4883f9d2a88be0079c531659141344cd1fd0a4f28419497f9722a3daafe3b4186f6b6457e0f3f7a9fe364faab93b216da50a3214154f22a0a2b415b23a84c8169e8b636ee36e1540171b6c0c960b71a7020d9f60077f6af931a8bbf590da0223dacf75c7af0175b7a638427703f0dbe7bb9bbf987a2551717b34e79f33b5b1008d1fa01db98fafebcaf9d154343dad25669bfa277f4fbacd7ac6b0c4fed522580e040a0f33a164736f6c6343000818000a",
  "linkReferences": {},
  "deployedLinkReferences": {}
}