{
  "_format": "hh-sol-artifact-1",
  "contractName": "LaunchCampaign",
  "sourceName": "contracts/LaunchCampaign.sol",
  "abi": [
    {
      "inputs": [],
      "stateMutability": "nonpayable",
      "type": "constructor"
    },
    {
      "inputs": [
        {
          "internalType": "address",
          "name": "owner",
          "type": "address"
        }
      ],
      "name": "OwnableInvalidOwner",
      "type": "error"
    },
    {
      "inputs": [
        {
          "internalType": "address",
          "name": "account",
          "type": "address"
        }
      ],
      "name": "OwnableUnauthorizedAccount",
      "type": "error"
    },
    {
      "inputs": [],
      "name": "ReentrancyGuardReentrantCall",
      "type": "error"
    },
    {
      "inputs": [
        {
          "internalType": "address",
          "name": "token",
          "type": "address"
        }
      ],
      "name": "SafeERC20FailedOperation",
      "type": "error"
    },
    {
      "anonymous": false,
      "inputs": [
        {
          "indexed": true,
          "internalType": "address",
          "name": "caller",
          "type": "address"
        },
        {
          "indexed": false,
          "internalType": "uint256",
          "name": "liquidityTokens",
          "type": "uint256"
        },
        {
          "indexed": false,
          "internalType": "uint256",
          "name": "liquidityBnb",
          "type": "uint256"
        },
        {
          "indexed": false,
          "internalType": "uint256",
          "name": "protocolFee",
          "type": "uint256"
        },
        {
          "indexed": false,
          "internalType": "uint256",
          "name": "creatorPayout",
          "type": "uint256"
        }
      ],
      "name": "CampaignFinalized",
      "type": "event"
    },
    {
      "anonymous": false,
      "inputs": [
        {
          "indexed": true,
          "internalType": "address",
          "name": "beneficiary",
          "type": "address"
        },
        {
          "indexed": false,
          "internalType": "uint256",
          "name": "amount",
          "type": "uint256"
        }
      ],
      "name": "NativeClaimed",
      "type": "event"
    },
    {
      "anonymous": false,
      "inputs": [
        {
          "indexed": true,
          "internalType": "address",
          "name": "beneficiary",
          "type": "address"
        },
        {
          "indexed": false,
          "internalType": "uint256",
          "name": "amount",
          "type": "uint256"
        }
      ],
      "name": "NativeEscrowed",
      "type": "event"
    },
    {
      "anonymous": false,
      "inputs": [
        {
          "indexed": true,
          "internalType": "address",
          "name": "previousOwner",
          "type": "address"
        },
        {
          "indexed": true,
          "internalType": "address",
          "name": "newOwner",
          "type": "address"
        }
      ],
      "name": "OwnershipTransferred",
      "type": "event"
    },
    {
      "anonymous": false,
      "inputs": [
        {
          "indexed": true,
          "internalType": "address",
          "name": "buyer",
          "type": "address"
        },
        {
          "indexed": false,
          "internalType": "uint256",
          "name": "amountOut",
          "type": "uint256"
        },
        {
          "indexed": false,
          "internalType": "uint256",
          "name": "cost",
          "type": "uint256"
        }
      ],
      "name": "TokensPurchased",
      "type": "event"
    },
    {
      "anonymous": false,
      "inputs": [
        {
          "indexed": true,
          "internalType": "address",
          "name": "seller",
          "type": "address"
        },
        {
          "indexed": false,
          "internalType": "uint256",
          "name": "amountIn",
          "type": "uint256"
        },
        {
          "indexed": false,
          "internalType": "uint256",
          "name": "payout",
          "type": "uint256"
        }
      ],
      "name": "TokensSold",
      "type": "event"
    },
    {
      "inputs": [],
      "name": "basePrice",
      "outputs": [
        {
          "internalType": "uint256",
          "name": "",
          "type": "uint256"
        }
      ],
      "stateMutability": "view",
      "type": "function"
    },
    {
      "inputs": [
        {
          "internalType": "uint256",
          "name": "minTokensOut",
          "type": "uint256"
        }
      ],
      "name": "buyExactBnb",
      "outputs": [
        {
          "internalType": "uint256",
          "name": "tokensOut",
          "type": "uint256"
        },
        {
          "internalType": "uint256",
          "name": "totalSpent",
          "type": "uint256"
        }
      ],
      "stateMutability": "payable",
      "type": "function"
    },
    {
      "inputs": [
        {
          "internalType": "address",
          "name": "recipient",
          "type": "address"
        },
        {
          "internalType": "uint256",
          "name": "minTokensOut",
          "type": "uint256"
        }
      ],
      "name": "buyExactBnbFor",
      "outputs": [
        {
          "internalType": "uint256",
          "name": "tokensOut",
          "type": "uint256"
        },
        {
          "internalType": "uint256",
          "name": "totalSpent",
          "type": "uint256"
        }
      ],
      "stateMutability": "payable",
      "type": "function"
    },
    {
      "inputs": [
        {
          "internalType": "uint256",
          "name": "amountOut",
          "type": "uint256"
        },
        {
          "internalType": "uint256",
          "name": "maxCost",
          "type": "uint256"
        }
      ],
      "name": "buyExactTokens",
      "outputs": [
        {
          "internalType": "uint256",
          "name": "cost",
          "type": "uint256"
        }
      ],
      "stateMutability": "payable",
      "type": "function"
    },
    {
      "inputs": [
        {
          "internalType": "address",
          "name": "recipient",
          "type": "address"
        },
        {
          "internalType": "uint256",
          "name": "amountOut",
          "type": "uint256"
        },
        {
          "internalType": "uint256",
          "name": "maxCost",
          "type": "uint256"
        }
      ],
      "name": "buyExactTokensFor",
      "outputs": [
        {
          "internalType": "uint256",
          "name": "total",
          "type": "uint256"
        }
      ],
      "stateMutability": "payable",
      "type": "function"
    },
    {
      "inputs": [],
      "name": "buyersCount",
      "outputs": [
        {
          "internalType": "uint256",
          "name": "",
          "type": "uint256"
        }
      ],
      "stateMutability": "view",
      "type": "function"
    },
    {
      "inputs": [],
      "name": "claimPendingNative",
      "outputs": [
        {
          "internalType": "uint256",
          "name": "amount",
          "type": "uint256"
        }
      ],
      "stateMutability": "nonpayable",
      "type": "function"
    },
    {
      "inputs": [],
      "name": "creatorReserve",
      "outputs": [
        {
          "internalType": "uint256",
          "name": "",
          "type": "uint256"
        }
      ],
      "stateMutability": "view",
      "type": "function"
    },
    {
      "inputs": [],
      "name": "currentPrice",
      "outputs": [
        {
          "internalType": "uint256",
          "name": "",
          "type": "uint256"
        }
      ],
      "stateMutability": "view",
      "type": "function"
    },
    {
      "inputs": [],
      "name": "curveSupply",
      "outputs": [
        {
          "internalType": "uint256",
          "name": "",
          "type": "uint256"
        }
      ],
      "stateMutability": "view",
      "type": "function"
    },
    {
      "inputs": [],
      "name": "extraLink",
      "outputs": [
        {
          "internalType": "string",
          "name": "",
          "type": "string"
        }
      ],
      "stateMutability": "view",
      "type": "function"
    },
    {
      "inputs": [],
      "name": "factory",
      "outputs": [
        {
          "internalType": "address",
          "name": "",
          "type": "address"
        }
      ],
      "stateMutability": "view",
      "type": "function"
    },
    {
      "inputs": [],
      "name": "feeRecipient",
      "outputs": [
        {
          "internalType": "address",
          "name": "",
          "type": "address"
        }
      ],
      "stateMutability": "view",
      "type": "function"
    },
    {
      "inputs": [
        {
          "internalType": "uint256",
          "name": "minTokens",
          "type": "uint256"
        },
        {
          "internalType": "uint256",
          "name": "minBnb",
          "type": "uint256"
        }
      ],
      "name": "finalize",
      "outputs": [
        {
          "internalType": "uint256",
          "name": "usedTokens",
          "type": "uint256"
        },
        {
          "internalType": "uint256",
          "name": "usedBnb",
          "type": "uint256"
        }
      ],
      "stateMutability": "nonpayable",
      "type": "function"
    },
    {
      "inputs": [],
      "name": "finalizedAt",
      "outputs": [
        {
          "internalType": "uint256",
          "name": "",
          "type": "uint256"
        }
      ],
      "stateMutability": "view",
      "type": "function"
    },
    {
      "inputs": [],
      "name": "graduationTarget",
      "outputs": [
        {
          "internalType": "uint256",
          "name": "",
          "type": "uint256"
        }
      ],
      "stateMutability": "view",
      "type": "function"
    },
    {
      "inputs": [
        {
          "internalType": "address",
          "name": "",
          "type": "address"
        }
      ],
      "name": "hasBought",
      "outputs": [
        {
          "internalType": "bool",
          "name": "",
          "type": "bool"
        }
      ],
      "stateMutability": "view",
      "type": "function"
    },
    {
      "inputs": [
        {
          "components": [
            {
              "internalType": "string",
              "name": "name",
              "type": "string"
            },
            {
              "internalType": "string",
              "name": "symbol",
              "type": "string"
            },
            {
              "internalType": "string",
              "name": "logoURI",
              "type": "string"
            },
            {
              "internalType": "string",
              "name": "xAccount",
              "type": "string"
            },
            {
              "internalType": "string",
              "name": "website",
              "type": "string"
            },
            {
              "internalType": "string",
              "name": "extraLink",
              "type": "string"
            },
            {
              "internalType": "uint256",
              "name": "totalSupply",
              "type": "uint256"
            },
            {
              "internalType": "uint256",
              "name": "curveBps",
              "type": "uint256"
            },
            {
              "internalType": "uint256",
              "name": "liquidityTokenBps",
              "type": "uint256"
            },
            {
              "internalType": "uint256",
              "name": "basePrice",
              "type": "uint256"
            },
            {
              "internalType": "uint256",
              "name": "priceSlope",
              "type": "uint256"
            },
            {
              "internalType": "uint256",
              "name": "graduationTarget",
              "type": "uint256"
            },
            {
              "internalType": "uint256",
              "name": "liquidityBps",
              "type": "uint256"
            },
            {
              "internalType": "uint256",
              "name": "protocolFeeBps",
              "type": "uint256"
            },
            {
              "internalType": "uint256",
              "name": "leagueFeeBps",
              "type": "uint256"
            },
            {
              "internalType": "address",
              "name": "leagueReceiver",
              "type": "address"
            },
            {
              "internalType": "address",
              "name": "router",
              "type": "address"
            },
            {
              "internalType": "address",
              "name": "lpReceiver",
              "type": "address"
            },
            {
              "internalType": "address",
              "name": "feeRecipient",
              "type": "address"
            },
            {
              "internalType": "address",
              "name": "creator",
              "type": "address"
            },
            {
              "internalType": "address",
              "name": "factory",
              "type": "address"
            }
          ],
          "internalType": "struct LaunchCampaign.InitParams",
          "name": "params",
          "type": "tuple"
        }
      ],
      "name": "initialize",
      "outputs": [],
      "stateMutability": "nonpayable",
      "type": "function"
    },
    {
      "inputs": [],
      "name": "launched",
      "outputs": [
        {
          "internalType": "bool",
          "name": "",
          "type": "bool"
        }
      ],
      "stateMutability": "view",
      "type": "function"
    },
    {
      "inputs": [],
      "name": "leagueFeeBps",
      "outputs": [
        {
          "internalType": "uint256",
          "name": "",
          "type": "uint256"
        }
      ],
      "stateMutability": "view",
      "type": "function"
    },
    {
      "inputs": [],
      "name": "leagueReceiver",
      "outputs": [
        {
          "internalType": "address",
          "name": "",
          "type": "address"
        }
      ],
      "stateMutability": "view",
      "type": "function"
    },
    {
      "inputs": [],
      "name": "liquidityBps",
      "outputs": [
        {
          "internalType": "uint256",
          "name": "",
          "type": "uint256"
        }
      ],
      "stateMutability": "view",
      "type": "function"
    },
    {
      "inputs": [],
      "name": "liquiditySupply",
      "outputs": [
        {
          "internalType": "uint256",
          "name": "",
          "type": "uint256"
        }
      ],
      "stateMutability": "view",
      "type": "function"
    },
    {
      "inputs": [],
      "name": "logoURI",
      "outputs": [
        {
          "internalType": "string",
          "name": "",
          "type": "string"
        }
      ],
      "stateMutability": "view",
      "type": "function"
    },
    {
      "inputs": [],
      "name": "lpReceiver",
      "outputs": [
        {
          "internalType": "address",
          "name": "",
          "type": "address"
        }
      ],
      "stateMutability": "view",
      "type": "function"
    },
    {
      "inputs": [],
      "name": "owner",
      "outputs": [
        {
          "internalType": "address",
          "name": "",
          "type": "address"
        }
      ],
      "stateMutability": "view",
      "type": "function"
    },
    {
      "inputs": [
        {
          "internalType": "address",
          "name": "",
          "type": "address"
        }
      ],
      "name": "pendingNative",
      "outputs": [
        {
          "internalType": "uint256",
          "name": "",
          "type": "uint256"
        }
      ],
      "stateMutability": "view",
      "type": "function"
    },
    {
      "inputs": [],
      "name": "priceSlope",
      "outputs": [
        {
          "internalType": "uint256",
          "name": "",
          "type": "uint256"
        }
      ],
      "stateMutability": "view",
      "type": "function"
    },
    {
      "inputs": [],
      "name": "protocolFeeBps",
      "outputs": [
        {
          "internalType": "uint256",
          "name": "",
          "type": "uint256"
        }
      ],
      "stateMutability": "view",
      "type": "function"
    },
    {
      "inputs": [
        {
          "internalType": "uint256",
          "name": "totalInWei",
          "type": "uint256"
        }
      ],
      "name": "quoteBuyExactBnb",
      "outputs": [
        {
          "internalType": "uint256",
          "name": "tokensOut",
          "type": "uint256"
        },
        {
          "internalType": "uint256",
          "name": "totalCostWei",
          "type": "uint256"
        },
        {
          "internalType": "uint256",
          "name": "feeWei",
          "type": "uint256"
        }
      ],
      "stateMutability": "view",
      "type": "function"
    },
    {
      "inputs": [
        {
          "internalType": "uint256",
          "name": "amountOut",
          "type": "uint256"
        }
      ],
      "name": "quoteBuyExactTokens",
      "outputs": [
        {
          "internalType": "uint256",
          "name": "",
          "type": "uint256"
        }
      ],
      "stateMutability": "view",
      "type": "function"
    },
    {
      "inputs": [
        {
          "internalType": "uint256",
          "name": "amountIn",
          "type": "uint256"
        }
      ],
      "name": "quoteSellExactTokens",
      "outputs": [
        {
          "internalType": "uint256",
          "name": "",
          "type": "uint256"
        }
      ],
      "stateMutability": "view",
      "type": "function"
    },
    {
      "inputs": [],
      "name": "renounceOwnership",
      "outputs": [],
      "stateMutability": "nonpayable",
      "type": "function"
    },
    {
      "inputs": [],
      "name": "router",
      "outputs": [
        {
          "internalType": "contract IPancakeRouter02",
          "name": "",
          "type": "address"
        }
      ],
      "stateMutability": "view",
      "type": "function"
    },
    {
      "inputs": [
        {
          "internalType": "uint256",
          "name": "amountIn",
          "type": "uint256"
        },
        {
          "internalType": "uint256",
          "name": "minPayout",
          "type": "uint256"
        }
      ],
      "name": "sellExactTokens",
      "outputs": [
        {
          "internalType": "uint256",
          "name": "payout",
          "type": "uint256"
        }
      ],
      "stateMutability": "nonpayable",
      "type": "function"
    },
    {
      "inputs": [],
      "name": "sold",
      "outputs": [
        {
          "internalType": "uint256",
          "name": "",
          "type": "uint256"
        }
      ],
      "stateMutability": "view",
      "type": "function"
    },
    {
      "inputs": [],
      "name": "token",
      "outputs": [
        {
          "internalType": "contract LaunchToken",
          "name": "",
          "type": "address"
        }
      ],
      "stateMutability": "view",
      "type": "function"
    },
    {
      "inputs": [],
      "name": "totalBuyVolumeWei",
      "outputs": [
        {
          "internalType": "uint256",
          "name": "",
          "type": "uint256"
        }
      ],
      "stateMutability": "view",
      "type": "function"
    },
    {
      "inputs": [],
      "name": "totalSellVolumeWei",
      "outputs": [
        {
          "internalType": "uint256",
          "name": "",
          "type": "uint256"
        }
      ],
      "stateMutability": "view",
      "type": "function"
    },
    {
      "inputs": [],
      "name": "totalSupply",
      "outputs": [
        {
          "internalType": "uint256",
          "name": "",
          "type": "uint256"
        }
      ],
      "stateMutability": "view",
      "type": "function"
    },
    {
      "inputs": [
        {
          "internalType": "address",
          "name": "newOwner",
          "type": "address"
        }
      ],
      "name": "transferOwnership",
      "outputs": [],
      "stateMutability": "nonpayable",
      "type": "function"
    },
    {
      "inputs": [],
      "name": "website",
      "outputs": [
        {
          "internalType": "string",
          "name": "",
          "type": "string"
        }
      ],
      "stateMutability": "view",
      "type": "function"
    },
    {
      "inputs": [],
      "name": "xAccount",
      "outputs": [
        {
          "internalType": "string",
          "name": "",
          "type": "string"
        }
      ],
      "stateMutability": "view",
      "type": "function"
    },
    {
      "stateMutability": "payable",
      "type": "receive"
    }
  ],
  "bytecode": "0x6080806040523461006b576001600081815581546001600160a01b031981168317835582916001600160a01b03909116907f8be0079c531659141344cd1fd0a4f28419497f9722a3daafe3b4186f6b6457e09080a360ff19601f541617601f55614d7590816100718239f35b600080fdfe60808060405260043610156200001f575b5036156200001d57600080fd5b005b600090813560e01c90816302c7e7af1462002efb5750806318160ddd1462002edb5780631dd9e2df1462002de45780631f0c57fc1462002db95780632138a4c01462002d9957806335659fb81462002d79578063365d57a41462002d59578063366ad2501462002cf45780633794f6be1462002b1c578063381562c21462002afc578063469048401462002ad1578063543546291462002ab157806354e42f7e1462002a9157806360068dd81462002a4e5780636516183114620024d85780636700e33214620024ad5780636915712d14620022a15780636bb38b281462002206578063715018a614620021b65780638091f3bf146200219157806386f2ece0146200217157806389f2f08514620021515780638da5cb5b14620021265780639d1b464a14620020f95780639e6ea74d1462001b1d578063a4b20f131462001afd578063af7695451462001a8e578063b6013cef1462001680578063b915d4be146200164a578063ba49a08c146200162a578063beb0a416146200156a578063bec92898146200152d578063c45a01551462001502578063c59f5eed1462000737578063c7876ea41462000717578063c9f62af214620006f7578063cd1fc09f14620006d7578063dd1a2a39146200063a578063ed33da2714620003bd578063f20f3d9014620002e3578063f2fde38b1462000284578063f887ea4014620002595763fc0c546a0362000010573462000256578060031936011262000256576002546040516001600160a01b039091168152602090f35b80fd5b503462000256578060031936011262000256576004546040516001600160a01b039091168152602090f35b5034620002565760203660031901126200025657620002a262002f35565b620002ac62003992565b6001600160a01b03811615620002ca57620002c790620039bf565b80f35b604051631e4fbdf760e01b815260048101839052602490fd5b50346200025657806003193601126200025657604051600b546000826200030a8362002f61565b91828252602093600190856001821691826000146200039b57505060011462000357575b506200033d9250038362002fe4565b6200035360405192828493845283019062003008565b0390f35b849150600b60005281600020906000915b858310620003825750506200033d9350820101856200032e565b8054838901850152879450869390920191810162000368565b60ff1916858201526200033d95151560051b85010192508791506200032e9050565b5060603660031901126200025657620003d562002f35565b6005546001600160a01b03919060243590620003f59084163314620032c2565b620003ff6200347b565b8282169162000410831515620032fe565b6200042160ff601854161562003183565b6200042e821515620030e8565b6200047860175462000450620004458583620031fc565b60145410156200320a565b620004716200046a620004648684620031fc565b62003b03565b9162003b03565b906200315f565b9362000484856200349f565b94620004918682620031fc565b95620004a2604435881115620031c4565b620004b08734101562003242565b620004be82601a54620031fc565b601a55858852601d60205260408820805460ff811615620005f3575b5050936001959360008051602062004d498339815191529360409360209a976200050785601754620031fc565b6017556200051b8585856003541662003608565b62000592575b505087341162000575575b60175460145414801562000568575b62000556575b5081519081528688820152a255604051908152f35b62000561906200364a565b5062000541565b504760105411156200053b565b6200058c6200058589346200315f565b33620035b5565b6200052c565b6200059d90620034c4565b915080151580620005e5575b620005ce575b5080156200052157620005c6916007541662003539565b388062000521565b620005de90836006541662003539565b38620005af565b5082600654161515620005a9565b60019060ff1916179055601c54600181018091116200062657601c558360008051602062004d49833981519152620004da565b634e487b7160e01b89526011600452602489fd5b50346200025657806003193601126200025657604051600d54600082620006618362002f61565b91828252602093600190856001821691826000146200039b5750506001146200069357506200033d9250038362002fe4565b849150600d60005281600020906000915b858310620006be5750506200033d9350820101856200032e565b80548389018501528794508693909201918101620006a4565b503462000256578060031936011262000256576020600854604051908152f35b503462000256578060031936011262000256576020601154604051908152f35b503462000256578060031936011262000256576020600e54604051908152f35b503462000256576003199060203683011262000256576001600160401b036004351162000256576102a080926004353603011262000256576040519182016001600160401b0381118382101762001070576040526004803501356001600160401b038111620014fe57620007b390600436918135010162003066565b8252600435602401356001600160401b038111620014fe57620007de90600436918135010162003066565b6020830190815290600435604401356001600160401b038111620014fe576200080f90600436918135010162003066565b6040840152600435606401356001600160401b038111620014fe576200083d90600436918135010162003066565b6060840152600435608401356001600160401b038111620014fe576200086b90600436918135010162003066565b608084015260043560a401356001600160401b038111620014fe576200089990600436918135010162003066565b60a084015260043560c481013560c085015260e481013560e08501526101048101356101008501526101248101356101208501526101448101356101408501526101648101356101608501526101848101356101808501526101a48101356101a08501526101c48101356101c085015262000918906101e40162002f4c565b6101e08401526200092f6102046004350162002f4c565b610200840152620009466102246004350162002f4c565b6102208401526200095d6102446004350162002f4c565b610240840152620009746102646004350162002f4c565b6102608401526200098b6102846004350162002f4c565b610280840152601f5460ff8116620014cb5760ff1916600117601f5560c083015115620014955760e0830151801515908162001488575b50156200145757612710620009e260e085015161010086015190620031fc565b116200141f5761012083015115620013ed5761014083015115620013bb576102008301516001600160a01b03161562001388576102608301516001600160a01b0316156200135457612710610180840151116200131f576127106101a084015111620012eb576101c08301516101a084015110620012b4576101e08301516001600160a01b031615620012785760408301515115620012485761026083015162000a95906001600160a01b0316620039bf565b604083015180519093906001600160401b03811162000f845762000abb600a5462002f61565b601f8111620011f5575b506020601f82116001146200117c578394958293949262001170575b50508160011b916000199060031b1c191617600a555b606081015180519093906001600160401b0381116200115c5762000b1d600b5462002f61565b601f811162001109575b506020601f821160011462001090578495829394959262001084575b50508160011b916000199060031b1c191617600b555b608082015180519093906001600160401b038111620010705762000b7f600c5462002f61565b601f81116200101d575b506020601f821160011462000fa4578293949582939262000f98575b50508160011b916000199060031b1c191617600c555b60a083015180519093906001600160401b03811162000f845762000be1600d5462002f61565b601f811162000f31575b506020601f821160011462000eb8578394958293949262000eac575b50508160011b916000199060031b1c191617600d555b610120810151600e55610140810151600f556101608101516010556101808101516011556101a0810151601255610280810151600580546001600160a01b03199081166001600160a01b03938416179091556102408301516006805483169184169190911790556101e0830151600780549092169083161790556101c0820151600855610220820151168062000ea657506102608101516001600160a01b03165b600980546001600160a01b039283166001600160a01b0319918216179091556102008301516004805491909316911617905560c0810151601381905560e082015162000d4a9162000d50916127109162000d1991906200344c565b048060145561271062000d3760c0860151610100870151906200344c565b049283918260155560c08601516200315f565b6200315f565b6016551562000e70578051925160c082015160405190949091610f6a80840192906001600160401b0384118585101762000e5c5786979262000da886959362000db79362003d1f883960808552608085019062003008565b90838203602085015262003008565b916040820152606030910152039083f0801562000e4d57600280546001600160a01b03199081166001600160a01b03909316928317909155600380549091168217905560c09190910151813b1562000e5857829162000e2e916040519485809481936340c10f1960e01b8352306004840162003460565b03925af1801562000e4d5762000e42575080f35b620002c79062002f9e565b6040513d84823e3d90fd5b5050fd5b634e487b7160e01b87526041600452602487fd5b60405162461bcd60e51b815260206004820152600e60248201526d6c6971756964697479207a65726f60901b6044820152606490fd5b62000cbe565b01519050388062000c07565b600d845260008051602062004cc983398151915290845b601f198416811062000f18575060019394959683601f1981161062000efe575b505050811b01600d5562000c1d565b015160001960f88460031b161c1916905538808062000eef565b9091602060018192858b01518155019301910162000ecf565b600d845260008051602062004cc9833981519152601f830160051c81016020841062000f7c575b601f830160051c8201811062000f7057505062000beb565b85815560010162000f58565b508062000f58565b634e487b7160e01b83526041600452602483fd5b01519050388062000ba5565b600c835260008051602062004c8983398151915290835b601f198416811062001004575060019394959683601f1981161062000fea575b505050811b01600c5562000bbb565b015160001960f88460031b161c1916905538808062000fdb565b9091602060018192858b01518155019301910162000fbb565b600c835260008051602062004c89833981519152601f830160051c81016020841062001068575b601f830160051c820181106200105c57505062000b89565b84815560010162001044565b508062001044565b634e487b7160e01b82526041600452602482fd5b01519050388062000b43565b600b855260008051602062004d2983398151915290855b601f1984168110620010f0575060019394959683601f19811610620010d6575b505050811b01600b5562000b59565b015160001960f88460031b161c19169055388080620010c7565b9091602060018192858b015181550193019101620010a7565b600b855260008051602062004d29833981519152601f830160051c81016020841062001154575b601f830160051c820181106200114857505062000b27565b86815560010162001130565b508062001130565b634e487b7160e01b84526041600452602484fd5b01519050388062000ae1565b600a845260008051602062004ca983398151915290845b601f1984168110620011dc575060019394959683601f19811610620011c2575b505050811b01600a5562000af7565b015160001960f88460031b161c19169055388080620011b3565b9091602060018192858b01518155019301910162001193565b600a845260008051602062004ca9833981519152601f830160051c81016020841062001240575b601f830160051c820181106200123457505062000ac5565b8581556001016200121c565b50806200121c565b60405162461bcd60e51b81526020600482015260086024820152676c6f676f2075726960c01b6044820152606490fd5b60405162461bcd60e51b81526020600482015260146024820152736c6561677565207265636569766572207a65726f60601b6044820152606490fd5b60405162461bcd60e51b815260206004820152600f60248201526e1b195859dd594f9c1c9bdd1bd8dbdb608a1b6044820152606490fd5b60405162461bcd60e51b815260206004820152600c60248201526b70726f746f636f6c2062707360a01b6044820152606490fd5b60405162461bcd60e51b815260206004820152600d60248201526c6c69717569646974792062707360981b6044820152606490fd5b60405162461bcd60e51b815260206004820152600c60248201526b63726561746f72207a65726f60a01b6044820152606490fd5b60405162461bcd60e51b815260206004820152600b60248201526a726f75746572207a65726f60a81b6044820152606490fd5b60405162461bcd60e51b815260206004820152600a602482015269736c6f7065207a65726f60b01b6044820152606490fd5b60405162461bcd60e51b815260206004820152600a6024820152697072696365207a65726f60b01b6044820152606490fd5b60405162461bcd60e51b815260206004820152601060248201526f706f7274696f6e206f766572666c6f7760801b6044820152606490fd5b60405162461bcd60e51b815260206004820152600960248201526863757276652062707360b81b6044820152606490fd5b61271091501038620009c2565b60405162461bcd60e51b815260206004820152600e60248201526d696e76616c696420737570706c7960901b6044820152606490fd5b60405162461bcd60e51b815260206004820152600b60248201526a1a5b9a5d1a585b1a5e995960aa1b6044820152606490fd5b5080fd5b503462000256578060031936011262000256576005546040516001600160a01b039091168152602090f35b50346200025657602036600319011262000256576020906040906001600160a01b036200155962002f35565b168152601e83522054604051908152f35b50346200025657806003193601126200025657604051908082600c5491620015928362002f61565b928383526020946001918660018216918260001462001606575050600114620015c6575b50506200033d9250038362002fe4565b90859250600c82528282205b858310620015ed5750506200033d93508201013880620015b6565b80548389018501528794508693909201918101620015d2565b92509350506200033d94915060ff191682840152151560051b8201013880620015b6565b503462000256578060031936011262000256576020601c54604051908152f35b503462000256576020366003190112620002565760606200166d6004356200333c565b9060405192835260208301526040820152f35b50346200025657620016923662002f19565b6200169c62003992565b620016a66200347b565b82918384926018549260ff841662001a5d5760175460145414801562001a50575b1562001a1f576001620016f19460ff1916176018554260195547612710948591601254906200344c565b04938415158062001a0a575b620019eb575b6200171247601154906200344c565b04906015549283151580620019e1575b620018a7575b50505050846200173e601454601754906200315f565b8062001831575b5050601654806200180b575b50479081620017ec575b6002546001600160a01b0316803b15620014fe578180916004604051809481936322a3148f60e21b83525af1801562000e4d57620017d4575b50509360019160409586519186835285602084015287830152606082015260008051602062004ce983398151915260803392a25582519182526020820152f35b620017e0829162002f9e565b62000256578062001794565b600154620018059083906001600160a01b0316620035b5565b6200175b565b6003546001546200182a92916001600160a01b03918216911662003608565b3862001751565b6002546001600160a01b031690813b15620018a35782916200186b91604051948580948193632770a7eb60e21b8352306004840162003460565b03925af18015620018985762001884575b859062001745565b62001890915062002f9e565b83386200187c565b6040513d88823e3d90fd5b8280fd5b91955091955060018060a01b0394620018cb87876003541688600454169062003c5b565b85600454168660025416928760095416610708420191824211620019cd5792606095928b959260c495604051998a98899763f305d71960e01b89526004890152602488015260448701526064860152608485015260a48401525af180156200189857869187916200198a575b5093819562001950826003541683600454169062003b95565b82811162001960575b8062001728565b6200197a620019819383600354169360015416926200315f565b9162003608565b38808062001959565b9150506060813d606011620019c4575b81620019a96060938362002fe4565b81010312620019c057602081519101513862001937565b8580fd5b3d91506200199a565b634e487b7160e01b8c52601160045260248cfd5b5082151562001722565b60065462001a049086906001600160a01b031662003539565b62001703565b506006546001600160a01b03161515620016fd565b60405162461bcd60e51b81526020600482015260096024820152681d1a1c995cda1bdb1960ba1b6044820152606490fd5b50476010541115620016c7565b60405162461bcd60e51b8152602060048201526009602482015268199a5b985b1a5e995960ba1b6044820152606490fd5b5034620002565760203660031901126200025657602062001af562001ae360043562001abc811515620030e8565b620004716200046a620004646017549362001adc620004458287620031fc565b84620031fc565b62001aee816200349f565b90620031fc565b604051908152f35b503462000256578060031936011262000256576020601054604051908152f35b506040366003190112620002565762001b3562002f35565b6005546001600160a01b03919062001b519083163314620032c2565b62001b5b6200347b565b8181169062001b6c821515620032fe565b62001b7d60ff601854161562003183565b62001b88346200333c565b5092909362001b99851515620030e8565b62001ba9602435861015620031c4565b62001bd460175462001bc0620004458883620031fc565b620004716200046a620004648984620031fc565b62001bdf816200349f565b62001bf862001bef8284620031fc565b96871462003284565b62001c0682601a54620031fc565b601a55838852602094601d86528760408a20805460ff811615620020bb575b505062001c489162001c3a82601754620031fc565b601755856003541662003608565b6200205a575b5083341162002044575b60175460145414908115828162002037575b62001ca0575b50505060409460019160008051602062004d498339815191528780518881528787820152a2558351928352820152f35b8792889089926018549160ff831662002006579062001ff9575b1562001fc85760ff191660011760185542601955601254612710929190839062001ce590476200344c565b04928315158062001fba575b62001fa4575b62001d0647601154906200344c565b046015548015158062001f9a575b62001e6d575b50508962001d2e601454601754906200315f565b8062001e02575b50506016548062001de5575b5047938462001dcf575b60025416803b15620014fe578180916004604051809481936322a3148f60e21b83525af1801562000e4d5762001db7575b505060806040999486946001979460008051602062004ce9833981519152948d519384528a8401528c8301526060820152a291819662001c70565b62001dc3829162002f9e565b62000256578062001d7c565b62001ddf858260015416620035b5565b62001d4b565b62001dfb90856003541686600154169062003608565b3862001d41565b856002541690813b15620018a357829162001e3591604051948580948193632770a7eb60e21b8352306004840162003460565b03925af1801562001e625762001e4e575b8a9062001d35565b62001e5a915062002f9e565b883862001e46565b6040513d8d823e3d90fd5b62001e88919650809350856003541686600454169062003c5b565b836004541694846002541690856009541696610708420180421162001f8657928d9260c4926060956040519b8c96879563f305d71960e01b875260048701528a60248701528060448701526064860152608485015260a48401525af1801562001f7b578a958b9162001f39575b50918562001f0d866003541687600454169062003b95565b8082111562001d1a5762001f31916200197a8760035416928860015416926200315f565b388062001d1a565b9550506060853d60601162001f72575b8162001f586060938362002fe4565b8101031262001f6e578685519501513862001ef5565b8980fd5b3d915062001f49565b6040513d8c823e3d90fd5b634e487b7160e01b8e52601160045260248efd5b5081151562001d14565b62001fb484866006541662003539565b62001cf7565b508460065416151562001cf1565b60405162461bcd60e51b81526004810188905260096024820152681d1a1c995cda1bdb1960ba1b6044820152606490fd5b5047601054111562001cba565b60405162461bcd60e51b8152600481018a90526009602482015268199a5b985b1a5e995960ba1b6044820152606490fd5b5047601054111562001c6a565b620020546200058585346200315f565b62001c58565b6200206590620034c4565b915080151580620020ad575b62002096575b50801562001c4e576200208f90826007541662003539565b3862001c4e565b620020a690836006541662003539565b3862002077565b508260065416151562002071565b600191925060ff1916179055601c5460018101809111620020e557601c558762001c483862001c25565b634e487b7160e01b8a52601160045260248afd5b50346200025657806003193601126200025657602062001af5600e5462001aee600f5460175490620039f7565b503462000256578060031936011262000256576001546040516001600160a01b039091168152602090f35b503462000256578060031936011262000256576020601b54604051908152f35b503462000256578060031936011262000256576020601a54604051908152f35b50346200025657806003193601126200025657602060ff601854166040519015158152f35b50346200025657806003193601126200025657620021d362003992565b600180546001600160a01b0319811690915581906001600160a01b031660008051602062004d098339815191528280a380f35b50346200025657806003193601126200025657604051908082600a54916200222e8362002f61565b928383526020946001918660018216918260001462001606575050600114620022615750506200033d9250038362002fe4565b90859250600a82528282205b858310620022885750506200033d93508201013880620015b6565b805483890185015287945086939092019181016200226d565b5060203660031901126200025657620022b96200347b565b620022ca60ff601854161562003183565b620022d5346200333c565b50620022e3821515620030e8565b620022f3600435831015620031c4565b6200230a60175462000450620004458583620031fc565b62002315816200349f565b906200232f620023268383620031fc565b93841462003284565b6200233d81601a54620031fc565b601a55338552601d60205260408520805460ff81161562002474575b5050936001916040956200237086601754620031fc565b601755838060a01b03916200238b8733856003541662003608565b62002413575b5050823411620023fd575b601754601454148015620023f0575b620023dd575b845184815283602082015260008051602062004d49833981519152863392a25582519182526020820152f35b620023e8336200364a565b5050620023b1565b50476010541115620023ab565b6200240d6200058584346200315f565b6200239c565b6200241e90620034c4565b91508015158062002466575b6200244f575b508015620023915762002447916007541662003539565b388062002391565b6200245f90836006541662003539565b3862002430565b50826006541615156200242a565b60019060ff1916179055601c54600181018091116200249957601c5581604062002359565b634e487b7160e01b86526011600452602486fd5b503462000256578060031936011262000256576007546040516001600160a01b039091168152602090f35b50620024e43662002f19565b620024f19291926200347b565b6200250260ff601854161562003183565b6200250f831515620030e8565b6200253a60175462002526620004458683620031fc565b620004716200046a620004648784620031fc565b9162002546836200349f565b9362002561620025578686620031fc565b93841115620031c4565b6200256f8334101562003242565b6200257d84601a54620031fc565b601a55338252602093601d855260408320805460ff81161562002a16575b5050620025ab82601754620031fc565b60175560018060a01b0395620025c78333896003541662003608565b620029b5575b508234116200299f575b6017546014541480958115918262002992575b6200261f575b505090600191604051908152838582015260008051602062004d4983398151915260403392a255604051908152f35b8391849785916018549160ff831662002961579062002954575b15620029235760ff191660011760185542601955601254612710919082906200266390476200344c565b04918215158062002915575b620028ff575b6200268447601154906200344c565b0460155480151580620028f5575b620027eb575b5050620026ab601454601754906200315f565b8062002781575b506016548062002764575b50884793846200274e575b60025416803b15620014fe5781906004604051809481936322a3148f60e21b83525af1801562001f7b5762002732575b50600196979850604051938452888401526040830152606082015260008051602062004ce983398151915260803392a284939238620025f0565b6200273e8a9162002f9e565b6200274a5788620026f8565b8880fd5b6200275e858260015416620035b5565b620026c8565b6200277a90846003541685600154169062003608565b38620026bd565b836002541690813b15620027e757620027b588928392604051948580948193632770a7eb60e21b8352306004840162003460565b03925af18015620027dc5715620026b257620027d391995062002f9e565b849738620026b2565b6040513d89823e3d90fd5b8780fd5b62002806919550809250846003541685600454169062003c5b565b8260045416938360025416846009541691610708420196874211620020e5579160c49160609493604051998a95869463f305d71960e01b865260048601528860248601528d60448601528d6064860152608485015260a48401525af18015620018985786948791620028b7575b5090846200288b856003541686600454169062003b95565b808211156200269857620028af916200197a8660035416928760015416926200315f565b388062002698565b9450506060843d606011620028ec575b81620028d66060938362002fe4565b81010312620019c0578784519401513862002873565b3d9150620028c7565b5081151562002692565b6200290f83856006541662003539565b62002675565b50836006541615156200266f565b60405162461bcd60e51b81526004810189905260096024820152681d1a1c995cda1bdb1960ba1b6044820152606490fd5b5047601054111562002639565b60405162461bcd60e51b8152600481018b90526009602482015268199a5b985b1a5e995960ba1b6044820152606490fd5b50476010541115620025ea565b620029af6200058584346200315f565b620025d7565b620029c090620034c4565b91508015158062002a08575b620029f1575b508015620025cd57620029ea90866007541662003539565b38620025cd565b62002a0190876006541662003539565b38620029d2565b5086600654161515620029cc565b60019060ff1916179055601c546001810180911162002a3a57601c5538806200259b565b634e487b7160e01b84526011600452602484fd5b503462000256576020366003190112620002565760209060ff906040906001600160a01b0362002a7d62002f35565b168152601d84522054166040519015158152f35b503462000256578060031936011262000256576020600f54604051908152f35b503462000256578060031936011262000256576020601654604051908152f35b503462000256578060031936011262000256576006546040516001600160a01b039091168152602090f35b503462000256578060031936011262000256576020601554604051908152f35b5034620002565762002b2e3662002f19565b9062002b396200347b565b62002b4a60ff601854161562003183565b62002b57811515620030e8565b60175462002b688183111562003123565b62002b8762002b778262003b03565b620004716200046485856200315f565b9062002bb38362002b98846200349f565b9262000d4a62002ba985876200315f565b97881015620031c4565b6017556003546040516323b872dd60e01b6020820152336024820152306044820152606480820186905281526001600160a01b039291831660a082016001600160401b0381118382101762002ce0579262002c1f6020999693600198969362002c3b9660405262003b29565b62002c78575b5062002c328633620035b5565b601b54620031fc565b601b5560405190815283858201527f2dcf9433d75db0d8b1c172641f85e319ffe4ad22e108a95d1847ceb906e5195d60403392a255604051908152f35b62002c8382620034c4565b91508015158062002cd2575b62002cbb575b508062002ca4575b5062002c25565b62002cb3916007541662003539565b388062002c9d565b62002ccb90836006541662003539565b3862002c95565b508260065416151562002c8f565b634e487b7160e01b89526041600452602489fd5b5034620002565760203660031901126200025657602062001af562002d4e60043562002d22811515620030e8565b62000471620004646017549262002d3c8482111562003123565b62002d478462003b03565b936200315f565b62000471816200349f565b503462000256578060031936011262000256576020601954604051908152f35b503462000256578060031936011262000256576020601254604051908152f35b503462000256578060031936011262000256576020601454604051908152f35b503462000256578060031936011262000256576009546040516001600160a01b039091168152602090f35b5034620002565780600319360112620002565762002e016200347b565b338152602090601e8252604081205490811562002ea957338152601e83528060408120558080808085335af162002e37620030b3565b501562002e75576001906040518381527f7b3fcf6b642a0d537ec94e3e3554737ca883871bc8a5ea348d8ee3a9b9d9656c853392a255604051908152f35b60405162461bcd60e51b815260048101849052600c60248201526b18db185a5b4819985a5b195960a21b6044820152606490fd5b60405162461bcd60e51b815260048101849052600a6024820152696e6f2070656e64696e6760b01b6044820152606490fd5b503462000256578060031936011262000256576020601354604051908152f35b905034620014fe5781600319360112620014fe576020906017548152f35b604090600319011262002f30576004359060243590565b600080fd5b600435906001600160a01b038216820362002f3057565b35906001600160a01b038216820362002f3057565b90600182811c9216801562002f93575b602083101462002f7d57565b634e487b7160e01b600052602260045260246000fd5b91607f169162002f71565b6001600160401b03811162002fb257604052565b634e487b7160e01b600052604160045260246000fd5b608081019081106001600160401b0382111762002fb257604052565b601f909101601f19168101906001600160401b0382119082101762002fb257604052565b919082519283825260005b84811062003035575050826000602080949584010152601f8019910116010190565b60208183018101518483018201520162003013565b6001600160401b03811162002fb257601f01601f191660200190565b81601f8201121562002f305780359062003080826200304a565b9262003090604051948562002fe4565b8284526020838301011162002f3057816000926020809301838601378301015290565b3d15620030e3573d90620030c7826200304a565b91620030d7604051938462002fe4565b82523d6000602084013e565b606090565b15620030f057565b60405162461bcd60e51b815260206004820152600b60248201526a1e995c9bc8185b5bdd5b9d60aa1b6044820152606490fd5b156200312b57565b60405162461bcd60e51b815260206004820152600c60248201526b195e18d959591cc81cdbdb1960a21b6044820152606490fd5b919082039182116200316d57565b634e487b7160e01b600052601160045260246000fd5b156200318b57565b60405162461bcd60e51b815260206004820152601160248201527018d85b5c185a59db881b185d5b98da1959607a1b6044820152606490fd5b15620031cc57565b60405162461bcd60e51b8152602060048201526008602482015267736c69707061676560c01b6044820152606490fd5b919082018092116200316d57565b156200321257565b60405162461bcd60e51b81526020600482015260086024820152671cdbdb19081bdd5d60c21b6044820152606490fd5b156200324a57565b60405162461bcd60e51b8152602060048201526012602482015271696e73756666696369656e742076616c756560701b6044820152606490fd5b156200328c57565b60405162461bcd60e51b815260206004820152600e60248201526d0e2eadee8ca40dad2e6dac2e8c6d60931b6044820152606490fd5b15620032ca57565b60405162461bcd60e51b815260206004820152600c60248201526b4f4e4c595f464143544f525960a01b6044820152606490fd5b156200330657565b60405162461bcd60e51b815260206004820152600e60248201526d1e995c9bc81c9958da5c1a595b9d60921b6044820152606490fd5b908115620034425760ff6018541662003442576014546200336160175480926200315f565b9283156200343657600093905b818510620033bf5750508215620033b45780620004716200046a62000464866200339895620031fc565b90620033b0620033a8836200349f565b8093620031fc565b9190565b506000915081908190565b9093620033cd8582620031fc565b60018082018092116200316d571c90826200340062001ae3620033f5620004648689620031fc565b620004718862003b03565b11620034105750935b906200336e565b94506000198101908111156200340957634e487b7160e01b600052601160045260246000fd5b50600092508291829150565b6000915081908190565b818102929181159184041417156200316d57565b6001600160a01b039091168152602081019190915260400190565b6002600054146200348d576002600055565b604051633ee5aeb560e01b8152600490fd5b601254908115620034bd5761271091620034b9916200344c565b0490565b5050600090565b90620034d0826200349f565b918215620033b457620034ea61271091600854906200344c565b600754919004906001600160a01b031615801562003530575b620035285782811162003520575b6200351d81846200315f565b91565b508162003511565b508190600090565b50801562003503565b8115620035b1576001600160a01b03169060008080808085875af16200355e620030b3565b50156200356a57505050565b7f1196ff9c61f6c4d265bb9529d5aa6afceea1fc7646a5c406fcc1dcb61941db15916040828560209452601e845220620035a6828254620031fc565b9055604051908152a2565b5050565b600080809381935af1620035c8620030b3565b5015620035d157565b60405162461bcd60e51b815260206004820152600f60248201526e1d1c985b9cd9995c8819985a5b1959608a1b6044820152606490fd5b620036426200364893926200363360405194859263a9059cbb60e01b60208501526024840162003460565b03601f19810184528362002fe4565b62003b29565b565b6000916000809281906018549260ff841662001a5d5760175460145414801562003985575b1562001a1f576001620036999460ff1916176018554260195547612710948591601254906200344c565b04938415158062003970575b62003951575b620036ba47601154906200344c565b04601554908115158062003947575b6200382d575b5050620036e2601454601754906200315f565b80620037ca575b505060165480620037a4575b50478062003785575b6002546001600160a01b0393908416803b15620014fe578180916004604051809481936322a3148f60e21b83525af1801562000e4d576200376d575b50509160809160008051602062004ce98339815191529360405195898752886020880152604087015260608601521692a2565b62003779829162002f9e565b6200025657806200373a565b6001546200379e9082906001600160a01b0316620035b5565b620036fe565b600354600154620037c392916001600160a01b03918216911662003608565b38620036f5565b6002546001600160a01b031690813b15620018a3576200380583928392604051948580948193632770a7eb60e21b8352306004840162003460565b03925af1801562000e4d5715620036e957620038249192935062002f9e565b903880620036e9565b9650965060018060a01b03956200384f88886003541689600454169062003c5b565b86600454169087600254169088600954169261070842018042116200249957928b9260c492606095604051978896879563f305d71960e01b875260048701526024860152896044860152896064860152608485015260a48401525af1801562000e4d578291839162003908575b50968198620038d5826003541683600454169062003b95565b828111620038e5575b50620036cf565b6200197a620038ff9383600354169360015416926200315f565b388080620038de565b9150506060813d6060116200393e575b81620039276060938362002fe4565b81010312620014fe576020815191015138620038bc565b3d915062003918565b50801515620036c9565b6006546200396a9086906001600160a01b031662003539565b620036ab565b506006546001600160a01b03161515620036a5565b504760105411156200366f565b6001546001600160a01b03163303620039a757565b60405163118cdaa760e01b8152336004820152602490fd5b600180546001600160a01b039283166001600160a01b03198216811790925590911660008051602062004d09833981519152600080a3565b906000198183098183029182808310920391808303921462003a6f57670de0b6b3a7640000908282111562003a5c577faccb18165bd6fe31ae1cf318dc5b51eee0e1ba569b88cd74c1773b91fac10669940990828211900360ee1b910360121c170290565b634e487b7160005260116020526024601cfd5b5050670de0b6b3a764000091500490565b906000198183098183029182808310920391808303921462003aeb576a0c097ce7bc90715b34b9f160251b908282111562003a5c577f356317ffa45f828d2a41175b2aed3a20e7fdd4a4e46cc11944d93b01be7b1711940990828211900360db1b910360251c170290565b50506a0c097ce7bc90715b34b9f160251b9004919050565b62003b269062001aee62003b1a600e5483620039f7565b918002600f5462003a80565b90565b906000602091828151910182855af11562003b89576000513d62003b7f57506001600160a01b0381163b155b62003b5d5750565b604051635274afe760e01b81526001600160a01b039091166004820152602490fd5b6001141562003b55565b6040513d6000823e3d90fd5b60405190602082019263095ea7b360e01b80855260018060a01b03809216918260248601526020600080978160448901526044885262003bd58862002fc8565b87519082885af1903d8751908362003c37575b5050501562003bf9575b5050505050565b62003c2c946200364292604051926020840152602483015260448201526044815262003c258162002fc8565b8262003b29565b388080808062003bf2565b9192509062003c50575083163b15155b38808062003be8565b600191501462003c47565b604051916020600081850162003c958662003c8663095ea7b360e01b998a8552876024840162003460565b03601f19810188528762002fe4565b85519082865af16000513d8262003cf6575b50501562003cb6575b50505050565b62003cec93620036429160405191602083015260018060a01b03166024820152600060448201526044815262003c258162002fc8565b3880808062003cb0565b90915062003d1557506001600160a01b0382163b15155b388062003ca7565b60011462003d0d56fe60a060405234620003de5762000f6a803803806200001d81620003e3565b9283398101608082820312620003de5781516001600160401b039190828111620003de57816200004f91850162000409565b6020918285015190848211620003de576200006c91860162000409565b90606060408601519501519060018060a01b0394858316809303620003de578151818111620002de576003908154906001948583811c93168015620003d3575b89841014620003bd578190601f9384811162000367575b5089908483116001146200030057600092620002f4575b505060001982851b1c191690851b1782555b8551928311620002de5760049586548581811c91168015620002d3575b89821014620002be5782811162000273575b50879184116001146200020857938394918492600095620001fc575b50501b92600019911b1c19161782555b8015620001e457600580546001600160a01b03198116831790915560405194167f8be0079c531659141344cd1fd0a4f28419497f9722a3daafe3b4186f6b6457e0600080a38315620001b75783608052604051610aee90816200047c823960805181818161052001526105f30152f35b62461bcd60e51b8352820152600b60248201526a636170206973207a65726f60a81b604482015260649150fd5b604051631e4fbdf760e01b8152600081840152602490fd5b01519350388062000137565b9190601f198416928760005284896000209460005b8b898383106200025b575050501062000240575b50505050811b01825562000147565b01519060f884600019921b161c191690553880808062000231565b8686015189559097019694850194889350016200021d565b87600052886000208380870160051c8201928b8810620002b4575b0160051c019086905b828110620002a75750506200011b565b6000815501869062000297565b925081926200028e565b602288634e487b7160e01b6000525260246000fd5b90607f169062000109565b634e487b7160e01b600052604160045260246000fd5b015190503880620000da565b90879350601f19831691866000528b6000209260005b8d82821062000350575050841162000337575b505050811b018255620000ec565b015160001983871b60f8161c1916905538808062000329565b8385015186558b9790950194938401930162000316565b90915084600052896000208480850160051c8201928c8610620003b3575b918991869594930160051c01915b828110620003a3575050620000c3565b6000815585945089910162000393565b9250819262000385565b634e487b7160e01b600052602260045260246000fd5b92607f1692620000ac565b600080fd5b6040519190601f01601f191682016001600160401b03811183821017620002de57604052565b919080601f84011215620003de5782516001600160401b038111620002de576020906200043f601f8201601f19168301620003e3565b92818452828287010111620003de5760005b8181106200046757508260009394955001015290565b85810183015184820184015282016200045156fe6080604081815260048036101561001557600080fd5b600092833560e01c90816306fdde03146107df57508063095ea7b31461073657806318160ddd1461071757806323b872dd14610632578063313ce56714610616578063355274ea146105db57806340c10f19146104d95780634ada218b146104b257806370a082311461047b578063715018a6146104305780638a8c523c146103fe5780638da5cb5b146103d557806395d89b41146102d15780639dc29fac146101d6578063a9059cbb146101a5578063dd62ed3e146101585763f2fde38b146100de57600080fd5b34610154576020366003190112610154576100f7610901565b90610100610a75565b6001600160a01b0391821692831561013e575050600580546001600160a01b03198116841790915516600080516020610aa28339815191528380a380f35b51631e4fbdf760e01b8152908101849052602490fd5b8280fd5b5050346101a157806003193601126101a15780602092610176610901565b61017e61091c565b6001600160a01b0391821683526001865283832091168252845220549051908152f35b5080fd5b5050346101a157806003193601126101a1576020906101cf6101c5610901565b6024359033610973565b5160018152f35b508290346101a157826003193601126101a1576101f1610901565b90602435906101fe610a75565b6001600160a01b03838116939084156102ba5760055460ff8160a01c1615610288575b5050838552846020528585205491838310610269575050818495600080516020610ac2833981519152936020938688528785520381872055816002540360025551908152a380f35b6102848484895194859463391434e360e21b86528501610955565b0390fd5b168085141590816102af575b506102a0578680610221565b5084516312f1f92360e01b8152fd5b905033141587610294565b8651634b637e8f60e11b8152808401879052602490fd5b509190346101a157816003193601126101a15780519082845460018160011c90600183169283156103cb575b60209384841081146103b85783885290811561039c5750600114610364575b505050829003601f01601f19168201926001600160401b03841183851017610351575082918261034d9252826108b8565b0390f35b634e487b7160e01b815260418552602490fd5b919250868652828620918387935b838510610388575050505083010138808061031c565b805488860183015293019284908201610372565b60ff1916878501525050151560051b840101905038808061031c565b634e487b7160e01b895260228a52602489fd5b91607f16916102fd565b5050346101a157816003193601126101a15760055490516001600160a01b039091168152602090f35b833461042d578060031936011261042d57610417610a75565b6005805460ff60a01b1916600160a01b17905580f35b80fd5b833461042d578060031936011261042d57610449610a75565b600580546001600160a01b0319811690915581906001600160a01b0316600080516020610aa28339815191528280a380f35b5050346101a15760203660031901126101a15760209181906001600160a01b036104a3610901565b16815280845220549051908152f35b5050346101a157816003193601126101a15760209060ff60055460a01c1690519015158152f35b5090346101545780600319360112610154576104f3610901565b9060243591610500610a75565b6001600160a01b03169283156105af576002549061051e8483610932565b7f00000000000000000000000000000000000000000000000000000000000000001061057d575082600080516020610ac2833981519152926105638795602094610932565b60025585855284835280852082815401905551908152a380f35b606490602084519162461bcd60e51b8352820152600c60248201526b18d85c08195e18d95959195960a21b6044820152fd5b6020606492519162461bcd60e51b83528201526007602482015266746f207a65726f60c81b6044820152fd5b5050346101a157816003193601126101a157602090517f00000000000000000000000000000000000000000000000000000000000000008152f35b5050346101a157816003193601126101a1576020905160128152f35b50823461042d57606036600319011261042d5761064d610901565b61065561091c565b916044359360018060a01b038316808352600160205286832033845260205286832054916000198310610691575b6020886101cf898989610973565b8683106106f95781156106e25733156106cb575082526001602090815286832033845281529186902090859003905582906101cf87610683565b8751634a1406b160e11b8152908101849052602490fd5b875163e602df0560e01b8152908101849052602490fd5b9050610284868851938493637dc7a0d960e11b855233908501610955565b5050346101a157816003193601126101a1576020906002549051908152f35b503461015457816003193601126101545761074f610901565b6024359033156107c8576001600160a01b03169182156107b157508083602095338152600187528181208582528752205582519081527f8c5be1e5ebec7d5bd14f71427d1e84f3dd0314c0f7b2291e5b200ac8c7c3b925843392a35160018152f35b8351634a1406b160e11b8152908101859052602490fd5b835163e602df0560e01b8152808401869052602490fd5b84915083346101545782600319360112610154578260035460018160011c90600183169283156108ae575b60209384841081146103b857838852908115610892575060011461085957505050829003601f01601f19168201926001600160401b03841183851017610351575082918261034d9252826108b8565b91925060038652828620918387935b83851061087e575050505083010185808061031c565b805488860183015293019284908201610868565b60ff1916878501525050151560051b840101905085808061031c565b91607f169161080a565b6020808252825181830181905290939260005b8281106108ed57505060409293506000838284010152601f8019910116010190565b8181018601518482016040015285016108cb565b600435906001600160a01b038216820361091757565b600080fd5b602435906001600160a01b038216820361091757565b9190820180921161093f57565b634e487b7160e01b600052601160045260246000fd5b604091949392606082019560018060a01b0316825260208201520152565b6001600160a01b0392838216929091908315610a5c578416938415610a435760055460ff8160a01c1615610a0e575b5050600090838252816020526040822054908382106109f157509160408282600080516020610ac2833981519152958760209652828652038282205586815220818154019055604051908152a3565b6102848460405193849363391434e360e21b855260048501610955565b16808414159081610a38575b50610a265738806109a2565b6040516312f1f92360e01b8152600490fd5b905033141538610a1a565b60405163ec442f0560e01b815260006004820152602490fd5b604051634b637e8f60e11b815260006004820152602490fd5b6005546001600160a01b03163303610a8957565b60405163118cdaa760e01b8152336004820152602490fdfe8be0079c531659141344cd1fd0a4f28419497f9722a3daafe3b4186f6b6457e0ddf252ad1be2c89b69c2b068fc378daa952ba7f163c4a11628f55a4df523b3efa164736f6c6343000818000adf6966c971051c3d54ec59162606531493a51404a002842f56009d7e5cf4a8c7c65a7bb8d6351c1cf70c95a316cc6a92839c986682d98bc35f958f4883f9d2a8d7b6990105719101dabeb77144f2a3385c8033acd3af97e9423a695e81ad1eb5d286a958d004cd376acc3762fff407f0dd9bf991995fc81a26ff88081f2b7d1b8be0079c531659141344cd1fd0a4f28419497f9722a3daafe3b4186f6b6457e00175b7a638427703f0dbe7bb9bbf987a2551717b34e79f33b5b1008d1fa01db98fafebcaf9d154343dad25669bfa277f4fbacd7ac6b0c4fed522580e040a0f33a164736f6c6343000818000a",
  "linkReferences": {},
  "deployedLinkReferences": {}
}